:10000000C6C00000E1C00000DFC00000DDC000008D
:10001000DBC00000D9C00000D7C00000D5C0000080
:10002000D3C00000D1C000000C943216CDC0000037
:10003000CBC00000C9C00000C7C00000C5C00000A0
:10004000C3C00000C1C00000BFC00000BDC00000B0
:100050000C948B14B9C00000B7C00000B5C00000FC
:10006000B3C00000B1C00000AFC00000ADC00000D0
:10007000ABC00000A9C00000A7C00000A5C00000E0
:10008000A3C00000A1C000009FC000009DC00000F0
:100090009BC0000099C0000097C0000095C0000000
:1000A00093C0000091C000008FC00000084AD73BF9
:1000B0003BCE016E84BCBFFDC12F3D6C74319ABD37
:1000C00056833DDA3D00C77F11BED9E4BB4C3E915B
:1000D0006BAAAABE000000803F072C7AA5BA6CC5A7
:1000E00090DA3B9365FC8BBC53F810FD3C56928331
:1000F0004DBD879D3AB63DCBC9BF5BBE73DA0FC914
:100100003F12011001020000084F1B07000100010F
:1001100002DC0109023E00020100C03209040000B5
:100120000102020100052400100104240206052436
:10013000060001070582030800FF09040100020A06
:1001400000000007050402100001070583021000EB
:10015000010403090418034400650061006E0020D7
:1001600000430061006D0065007200610000001C2A
:10017000034C00550046004100200043004400436A
:10018000002000440065006D006F00000000112495
:100190001FBECFEFDAE0DEBFCDBF12E0A0E0B1E0DE
:1001A000EEE3F2E402C005900D92A43BB107D9F74B
:1001B00013E0A4EBB2E001C01D92A132B107E1F758
:1001C0000E94B7140C941D211BCF2091B9002E7FE3
:1001D0002093B9002091B9002D7F2093B9009C0194
:1001E00040E050E060EA7FE080E090E00E94451E41
:1001F000203130F0822F90E0409795958795282FF9
:100200002093B800089588E290E0DFDFECEBF0E0A7
:100210008081846080830895519A84EA8093BC0031
:10022000089584E98093BC00089520E030E0809137
:10023000BC0087FD06C02A35310519F02F5F3F4FFE
:10024000F6CF0895882329F08091BC008F70806CD0
:1002500004C08091BC008F7080688093BC000895BA
:100260008091BB0008958091B90008950BC020E0F3
:100270000000000000000000000000002F5F2A3591
:10028000B9F70197009799F708951F93182F81E008
:1002900090E0ECDF519A1093BB0084E88093BC009F
:1002A0001F910895EF92FF920F931F93519A0CEBB9
:1002B00010E044EAE42EF801E082B7DF80EDE5DFEC
:1002C000B4DF8EE3E2DFB1DF80E8DFDFAEDF34E909
:1002D000F32EF801F0828AE090E0C8DF519AF8012D
:1002E000E082A3DF80EDD1DFA0DF86E1CEDF9DDFFE
:1002F00088E1CBDF9ADFF801F0828AE090E0B6DF98
:10030000519AF801E08291DF80EDBFDF8EDF8EE34E
:10031000BCDF8BDF80E0B9DF88DFF801F0821F915E
:100320000F91FF90EF900895CF92DF92EF92FF929E
:100330000F931F930CEB10E0F80180818B7F80837B
:10034000808184608083519A74EAF72EF0826DDF99
:1003500080ED9BDF6ADF8DE198DF67DF519AF8015E
:10036000F08281ED92DF61DF80E06CDF5EDF6BEBBE
:10037000C62ED12CF601808158DF54E9E52EF80114
:10038000E08280818B7F8083808184608083519A2A
:10039000F0824BDF80ED79DF48DF8EE176DF45DFED
:1003A000519AF801F08281ED70DF3FDF80E04ADF93
:1003B0003CDFF601F08039DFF801E08280818B7F3D
:1003C00080838081846080838F2D1F910F91FF90A7
:1003D000EF90DF90CF900895CF92DF92EF92FF924F
:1003E0000F931F930CEB10E0F80180818B7F8083CB
:1003F000808184608083519AA4EAFA2EF08215DF0E
:1004000080ED43DF12DF8FE140DF0FDF519AF8010B
:10041000F08281ED3ADF09DF80E014DF06DFFBEBDD
:10042000CF2ED12CF601808100DFE4E9EE2EF80119
:10043000E08280818B7F8083808184608083519A79
:10044000F082F3DE80ED21DFF0DE80E21EDFEDDE04
:10045000519AF801F08281ED18DFE7DE80E0F2DEEC
:10046000E4DEF601F080E1DEF801E08280818B7F3E
:1004700080838081846080838F2D1F910F91FF90F6
:10048000EF90DF90CF900895CF92DF92EF92FF929E
:100490000F931F930CEB10E0F80180818B7F80831A
:1004A000808184608083519A94EAF92EF082BDDEC7
:1004B00080EDEBDEBADE81E2E8DEB7DE519AF801CC
:1004C000F08281EDE2DEB1DE80E0BCDEAEDE8BEB01
:1004D000C82ED12CF6018081A8DEB4E9EB2EF801FC
:1004E000E08280818B7F8083808184608083519AC9
:1004F000F0829BDE80EDC9DE98DE82E2C6DE95DE0C
:10050000519AF801F08281EDC0DE8FDE80E09ADE44
:100510008CDEF601F08089DEF801E08280818B7F3D
:1005200080838081846080838F2D1F910F91FF9045
:10053000EF90DF90CF900895EF92FF920F931F936B
:10054000519A0CEB10E034EAE32EF801E0826DDE04
:1005500086EA9BDE6ADE8DE298DE67DE88E095DE65
:1005600064DE24E9F22EF801F082519AE0825DDE29
:1005700086EA8BDE5ADE81E388DE57DE88E085DEA0
:1005800054DEF801F0821F910F91FF90EF900895D3
:10059000AF92BF92CF92DF92EF92FF920F931F9391
:1005A000519A0CEB10E064EAB62EF801B0823DDE01
:1005B00086EA6BDE3ADE82E368DE37DE54E9A52E9A
:1005C000F801A082519AB08230DE87EA5EDE2DDE2D
:1005D0008FEF38DE2ADE4BEBC42ED12CF601E08003
:1005E00024DE80E02FDE21DEF60180811EDEF801B0
:1005F000A082519AB08219DE86EA47DE16DE83E3D6
:1006000044DE13DEF801A082519AB0820EDE87EA42
:100610003CDE0BDE8FEF16DE08DEF601B08005DE75
:1006200080E010DE02DEF601C080FFDDF801A0826E
:100630009B2D80E0FF24E82AF92AC7011F910F9122
:10064000FF90EF90DF90CF90BF90AF900895AF9262
:10065000BF92CF92DF92EF92FF920F931F93519A26
:100660000CEB10E0F4EABF2EF801B082DEDD86EA82
:100670000CDEDBDD84E309DED8DDE4E9AE2EF80133
:10068000A082519AB082D1DD87EAFFDDCEDD8FEF07
:10069000D9DDCBDD7BEBC72ED12CF601E080C5DDAB
:1006A00080E0D0DDC2DDF6018081BFDDF801A082EF
:1006B000519AB082BADD86EAE8DDB7DD85E3E5DD93
:1006C000B4DDF801A082519AB082AFDD87EADDDDAA
:1006D000ACDD8FEFB7DDA9DDF601B080A6DD80E0EF
:1006E000B1DDA3DDF601C080A0DDF801A0829B2D65
:1006F00080E0FF24E82AF92AC7011F910F91FF909B
:10070000EF90DF90CF90BF90AF900895AF92BF92DF
:10071000CF92DF92EF92FF920F931F93519A0CEBBF
:1007200010E084EAB82EF801B0827FDD86EAADDD04
:100730007CDD86E3AADD79DDB4E9AB2EF801A08289
:10074000519AB08272DD87EAA0DD6FDD8FEF7ADD2E
:100750006CDDABEBCA2ED12CF601E08066DD80E0CB
:1007600071DD63DDF601808160DDF801A082519AC0
:10077000B0825BDD86EA89DD58DD87E386DD55DD05
:10078000F801A082519AB08250DD87EA7EDD4DDD0E
:100790008FEF58DD4ADDF601B08047DD80E052DDA5
:1007A00044DDF601C08041DDF801A0829B2D80E090
:1007B000FF24E82AF92AC7011F910F91FF90EF90BB
:1007C000DF90CF90BF90AF900895EF92FF920F937C
:1007D0001F93519A0CEB10E024EAE22EF801E0821C
:1007E00024DD8CE352DD21DD80E04FDD1EDD80E77E
:1007F0004CDD1BDD94E9F92EF801F082519AE0827C
:1008000014DD8CE342DD11DD81E03FDD0EDD80EAA9
:100810003CDD0BDDF801F082519AE08206DD8CE3CD
:1008200034DD03DD82E031DD00DD80E02EDDFDDC46
:10083000F801F0821F910F91FF90EF900895AF9211
:10084000BF92DF92EF92FF920F931F93BEDF519AF8
:100850004CEBA42EB12C84EAF5018083E6DC8DE319
:1008600014DDE3DC8FEFEEDCE0DC3BEBE32EF12C80
:10087000F701D080DADC8FEFE5DCD7DCF70100810F
:10088000D4DC9D2D80E010E0802B912B9093B5025D
:100890008093B4028FEFD6DCC8DCF701D080C5DCD2
:1008A0008FEFD0DCC2DCF7010081BFDC9D2D80E042
:1008B00010E0802B912B9093B9028093B8028FEFB8
:1008C000C1DCB3DCF701D080B0DC8FEFBBDCADDC8A
:1008D000F7010081AADC9D2D80E010E0802B912B98
:1008E0009093B7028093B6028DE3CFDC9EDC84E95F
:1008F000F50180831F910F91FF90EF90DF90BF90E3
:10090000AF90089519DE61CF2F923F924F925F9280
:100910006F927F928F929F92AF92BF92CF92DF920F
:10092000EF92FF920F931F93DF93CF9300D000D0ED
:100930000F92CDB7DEB79D838C837B836A83519AF8
:100940000CEB10E074EAD72EF801D0826EDC86EA58
:100950009CDC6BDC82E399DC68DC64E9962EF801B0
:100960009082519AD08261DC87EA8FDC5EDC8FEF67
:1009700069DC5BDC5BEBE52EF12CF701208055DCBC
:1009800080E060DC52DCF70180814FDCF80190826E
:10099000519AD0824ADC86EA78DC47DC83E375DC56
:1009A00044DCF8019082519AD0823FDC87EA6DDC0A
:1009B0003CDC8FEF47DC39DCF701508036DC80E02F
:1009C00041DC33DCF701808130DCF8019082519A00
:1009D000D0822BDC86EA59DC28DC84E356DC25DC7B
:1009E000F8019082519AD08220DC87EA4EDC1DDC2F
:1009F0008FEF28DC1ADCF701408017DC80E022DC76
:100A000014DCF701808111DCF8019082519AD082C8
:100A10000CDC86EA3ADC09DC85E337DC06DCF8012D
:100A20009082519AD08201DC87EA2FDCFEDB8FEFC7
:100A300009DCFBDBF7017080F8DB80E003DCF5DB31
:100A4000F7018081F2DBF8019082519AD082EDDBD0
:100A500086EA1BDCEADB86E318DCE7DBF801908240
:100A6000519AD082E2DB87EA10DCDFDB8FEFEADB32
:100A7000DCDBF7016080D9DB80E0E4DBD6DBF7016B
:100A80008081D3DBF8019082519AD082CEDB86EA56
:100A9000FCDBCBDB87E3F9DBC8DBF8019082519A02
:100AA000D082C3DB87EAF1DBC0DB8FEFCBDBBDDBC2
:100AB000F701B080BADB80E0C5DBB7DBF7018081EE
:100AC000B4DBF801908281DE519AF801D082ADDB6F
:100AD0008DE3DBDBAADB8FEFB5DBA7DBF701D08093
:100AE000A4DB8FEFAFDBA1DBF701C0809EDB8FEFD4
:100AF000A9DB9BDBF701F081F98397DB8FEFA2DBAA
:100B000094DBF701A08091DB8FEF9CDB8EDBF7019C
:100B100080808BDB8FEF96DB88DBF701E08085DB65
:100B20008DE3B3DB82DBF8019082752D60E0332426
:100B300062297329882777FD8095982F0E94521C7F
:100B4000EC81FD816083718382839383772D60E0E4
:100B5000552464297529882777FD8095982F0E9450
:100B6000521CEC81FD8164837583868397837B2D82
:100B700060E0772466297729882777FD8095982F6C
:100B80000E94521CEC81FD81608771878287938768
:100B90007D2D60E0DD246C297D29882777FD8095F7
:100BA000982F0E94521CEA81FB81608371838283AB
:100BB0009383782D60E0FF246E297F29882777FDB5
:100BC0008095982F0E94521CEA81FB816483758373
:100BD00086839783798160E0BB246A297B298827F3
:100BE00077FD8095982F0E94521CEA81FB816087D7
:100BF0007187828793870F900F900F900F900F90BF
:100C0000CF91DF911F910F91FF90EF90DF90CF90E8
:100C1000BF90AF909F908F907F906F905F904F901C
:100C20003F902F9008956F927F928F929F92AF92F4
:100C3000BF92CF92DF92EF92FF920F931F93DF93B9
:100C4000CF93CDB7DEB768970FB6F894DEBF0FBE6F
:100C5000CDBFDE011196E8EAF2E08CE001900D9242
:100C60008150E1F7DE011D96ECE9F2E08CE00190A5
:100C70000D928150E1F7AA24BB24CC24DD24EDE0C1
:100C80006E2E712C6C0E7D1E4E010894811C911CE1
:100C900004C07501860157016801C401B30134DE47
:100CA000ED88FE880F89188DB701C8019501A6014E
:100CB0000E94421D18167CF3ECCFF4CA2F923F928B
:100CC0004F925F926F927F928F929F92AF92BF925C
:100CD000CF92DF92EF92FF920F931F932C010CEBB8
:100CE00010E0F80180818B7F808380818460808325
:100CF000519AB4EAFB2EF08298DA80EDC6DA95DAE2
:100D00008DE1C3DA92DA519AF801F08281EDBDDA11
:100D10008CDA80E097DA89DAABEBAA2EB12CF501F8
:100D2000608083DAF4E97F2EF801708280818B7F06
:100D30008083808184608083519AF08276DA80EDAE
:100D4000A4DA73DA8EE1A1DA70DA519AF801F0824E
:100D500081ED9BDA6ADA80E075DA67DAF501808086
:100D600064DAF801708280818B7F80838081846067
:100D70008083519AF08259DA80ED87DA56DA8FE172
:100D800084DA53DA519AF801F08281ED7EDA4DDA95
:100D900080E058DA4ADAF501208047DAF8017082FB
:100DA00080818B7F8083808184608083519AF082F0
:100DB0003CDA80ED6ADA39DA80E267DA36DA519ABB
:100DC000F801F08281ED61DA30DA80E03BDA2DDA89
:100DD000F501C0802ADAF801708280818B7F8083E0
:100DE000808184608083519AF0821FDA80ED4DDA31
:100DF0001CDA81E24ADA19DA519AF801F08281EDBF
:100E000044DA13DA80E01EDA10DAF50130800DDA08
:100E1000F801708280818B7F8083808184608083F1
:100E2000519AF08202DA80ED30DAFFD982E22DDACF
:100E3000FCD9519AF801F08281ED27DAF6D980E0E9
:100E400001DAF3D9F501E080F0D9F80170828081F0
:100E50008B7F8083808184608083762D60E09924FD
:100E600068297929882777FD8095982F0E94521C40
:100E70003B014C01F2016083718382839383722D65
:100E800060E0DD246C297D29882777FD8095982FE7
:100E90000E94521C5B016C01F2016483758386839E
:100EA0009783732D60E0FF246E297F29882777FDC3
:100EB0008095982F0E94521C7B018C01F201608763
:100EC000718782879387C401B30120E030E044E654
:100ED00052E40E941E1BF20160837183828393831C
:100EE000C601B50120E030E040E551E40E941E1B40
:100EF000F2016483758386839783C801B70120E07C
:100F000030E040EA50E40E941E1BF20160877187C6
:100F1000828793871F910F91FF90EF90DF90CF9082
:100F2000BF90AF909F908F907F906F905F904F9009
:100F30003F902F9008958F929F92AF92BF92CF9241
:100F4000DF92EF92FF920F931F936C015B014A01B6
:100F5000FC016481758186819781F5012085318549
:100F6000428553850E944D1D7B018C01F6016085F1
:100F7000718582859385F50124813581468157816C
:100F80000E944D1D9B01AC01C801B7010E941D1BB1
:100F9000F4016083718382839383F6016085718598
:100FA00082859385F50120813181428153810E94A0
:100FB0004D1D7B018C01F6016081718182819381DD
:100FC000F50120853185428553850E944D1D9B0189
:100FD000AC01C801B7010E941D1BF4016483758335
:100FE00086839783F6016081718182819381F50107
:100FF00024813581468157810E944D1D7B018C01E2
:10100000F6016481758186819781F50120813181A6
:10101000428153810E944D1D9B01AC01C801B70163
:101020000E941D1BF40160877187828793871F913F
:101030000F91FF90EF90DF90CF90BF90AF909F9077
:101040008F900895AF92BF92CF92DF92EF92FF926E
:101050000F931F936C015B01FC01608171818281A0
:101060009381F50120813181428153810E944D1D80
:101070007B018C01F6016481758186819781F50180
:1010800024813581468157810E944D1D9B01AC0111
:10109000C801B7010E941E1B7B018C01F60160850F
:1010A000718582859385F50120853185428553853B
:1010B0000E944D1D9B01AC01C801B7010E941E1B7F
:1010C0001F910F91FF90EF90DF90CF90BF90AF9066
:1010D00008950F931F938C01FC01608171818281BF
:1010E000938120E03EEF4FEF56E40E94E81B9B0106
:1010F000AC010E941E1BF80160837183828393837D
:10110000648175818681978120E03EEF4FEF56E440
:101110000E94E81B9B01AC010E941E1BF801648326
:10112000758386839783608571858285938520E0AA
:101130003EEF4FEF56E40E94E81B9B01AC010E947A
:101140001E1BF80160877187828793871F910F911B
:1011500008950F931F938C01FC016081718182813E
:10116000938120E03FEF4FE757E40E94E81B20E027
:1011700030E04AEF54E40E944D1DF8016083718312
:1011800082839383648175818681978120E03FEF1C
:101190004FE757E40E94E81B20E030E04AEF54E4B8
:1011A0000E944D1DF8016483758386839783608553
:1011B00071858285938520E03FEF4FE757E40E94D9
:1011C000E81B20E030E04AEF54E40E944D1DF80196
:1011D00060877187828793871F910F9108956F921F
:1011E0007F928F929F92AF92BF92CF92DF92EF92B7
:1011F000FF920F931F93DF93CF93CDB7DEB72C975A
:101200000FB6F894DEBF0FBECDBF5C01C982DA8293
:10121000EB82FC820D831E832F83388749875A8790
:101220006B877C8769817A818B819C81ED80FE80D0
:101230000F81188569847A848B849C84D501ECE6BF
:10124000F2E02CE001900D922150E1F72FE832EC12
:1012500045E75CE30E944D1DF50160837183828345
:101260009383C801B7012FE832EC45E75CE30E94A5
:101270004D1DF5016483758386839783C401B30193
:101280002FE832EC45E75CE30E944D1DF5016087D5
:10129000718782879387C5012C960FB6F894DEBFBD
:1012A0000FBECDBFCF91DF911F910F91FF90EF90B7
:1012B000DF90CF90BF90AF909F908F907F906F9076
:1012C0000895AF92BF92CF92DF92EF92FF920F9369
:1012D0001F93DF93CF93CDB7DEB72C970FB6F8945B
:1012E000DEBF0FBECDBF5C018E010F5F1F4FC80177
:1012F000E5DCC8012EDFC501C980DA80EB80FC8007
:101300000D811E812F81388549855A856B857C85A5
:1013100066DFC5012C960FB6F894DEBF0FBECDBFB9
:10132000CF91DF911F910F91FF90EF90DF90CF90C1
:10133000BF90AF9008952F923F924F925F926F921D
:101340007F928F929F92AF92BF92CF92DF92EF9255
:10135000FF920F931F93DF93CF93CDB7DEB7C258A1
:10136000D1400FB6F894DEBF0FBECDBFCF57DE4FD2
:1013700099838883C158D140DC01E0E6F2E08CE03B
:1013800001900D928150E1F7AA24BB244E010894EC
:10139000811C911CC40192DCC401DBDEC501880FF5
:1013A000991F8A0D9B1D880F991F880F991F880D03
:1013B000991D0C96C980DA80EB80FC800D811E811E
:1013C0002F81388549855A856B857C8508DF08948F
:1013D000A11CB11C84E1A816B104E1F69DE0E92E40
:1013E000F12CEC0EFD1E870180E090E0A0E0B0E063
:1013F000C358DE4F88839983AA83BB83CD57D140DE
:101400001C012D013C014D018DEFC82ED12CCC0EBD
:10141000DD1EC401B301D8012D913D914D915C9128
:101420000E941E1B3B014C01C201B101F801248145
:101430003581468157810E941E1B1B012C01C35818
:10144000DE4F688179818A819B81CD57D140D80157
:1014500018962D913D914D915C911B970E941E1BFA
:10146000C358DE4F688379838A839B83CD57D140ED
:10147000045F1F4F0C151D0561F680E090E0A0E0B1
:10148000B0E0C758DE4F88839983AA83BB83C957CE
:10149000D140CB58DE4F88839983AA83BB83C5573D
:1014A000D1405C016D01D7012D913D914D915C9131
:1014B000CA01B9010E944D1D9B01AC01C601B501D5
:1014C0000E941E1B5B016C01F7012481358146815E
:1014D0005781CA01B9010E944D1D9B01AC01CB5837
:1014E000DE4F688179818A819B81C557D1400E94F6
:1014F0001E1BCB58DE4F688379838A839B83C55735
:10150000D140D70118962D913D914D915C911B973B
:10151000CA01B9010E944D1D9B01AC01C758DE4FA5
:10152000688179818A819B81C957D1400E941E1BA5
:10153000C758DE4F688379838A839B83C957D1401C
:10154000ECE0F0E0EE0EFF1EE016F10609F0ABCF86
:10155000C401B301A40193010E944D1D20E030E0BD
:1015600040EA51EC0E94E81B9B01AC01C601B501A9
:101570000E941E1B20E030E048E951E40E94E81B75
:101580009B01AC01CF57DE4FA881B981C158D14032
:101590006D917D918D919C910E941E1BCF57DE4FC6
:1015A000E881F981C158D14060837183828393833C
:1015B000C201B101A20191010E944D1D20E030E065
:1015C00040EA51EC0E94E81B9B01AC01CB58DE4F76
:1015D000688179818A819B81C557D1400E941E1BF9
:1015E00020E030E048E951E40E94E81B9B01AC0197
:1015F000CF57DE4FA881B981C158D14014966D9163
:101600007D918D919C9117970E941E1BCF57DE4FA5
:10161000E881F981C158D1406483758386839783BB
:10162000C358DE4F688179818A819B81CD57D14033
:101630009B01AC010E944D1D20E030E040EA51ECDE
:101640000E94E81B9B01AC01C758DE4F688179817D
:101650008A819B81C957D1400E941E1B20E030E047
:1016600048E951E40E94E81B9B01AC01CF57DE4FD3
:10167000A881B981C158D14018966D917D918D9105
:101680009C911B970E941E1BCF57DE4FE881F9816A
:10169000C158D1406087718782879387CF01CE5729
:1016A000DE4F0FB6F894DEBF0FBECDBFCF91DF91F6
:1016B0001F910F91FF90EF90DF90CF90BF90AF9070
:1016C0009F908F907F906F905F904F903F902F9062
:1016D00008950895089581E08AB983E08BB90E9446
:1016E000030110D90C945201AFE6B0E08C918E7FCB
:1016F0008C93E0E8F0E080818C7F8083E1E8F0E08B
:101700008081877E80838C918D7F8C9380818B7F7D
:10171000808380818260808380818E7F80838091BE
:101720005E0290915F0290938500809384008C917B
:1017300081608C930895CF92DF92EF92FF920F9386
:101740001F93DF93CF93CDB7DEB72E970FB6F894E4
:10175000DEBF0FBECDBFC982DA82EB82FC820D8371
:101760001E832F83388749875A876B877C878D87AD
:101770009E8765D800D000D000D0EDB7FEB7319677
:101780008E010F5F1F4FADB7BEB712961C930E931D
:10179000119780E091E0938382838091B4029091CD
:1017A000B502958384830E94671EEDB7FEB731961C
:1017B000ADB7BEB712961C930E9311978CE191E0D2
:1017C000938382838091B6029091B702958384833C
:1017D0000E94671EEDB7FEB73196ADB7BEB7129641
:1017E0001C930E93119788E391E0938382838091F9
:1017F000B8029091B902958384830E94671E0F906E
:101800000F90EDB7FEB71283018384E591E09483D6
:1018100083830E94671E0F900F900F900F9084E1BA
:1018200090E00E9436012E960FB6F894DEBF0FBEF0
:10183000CDBFCF91DF911F910F91FF90EF90DF907F
:10184000CF900895CF92DF92EF92FF920F931F9364
:10185000DF93CF93CDB7DEB72E970FB6F894DEBFE8
:101860000FBECDBFC982DA82EB82FC820D831E835C
:101870002F83388749875A876B877C878D879E8718
:101880000E94270300D000D000D0EDB7FEB73196FC
:101890008E010F5F1F4FADB7BEB712961C930E930C
:1018A000119727E531E033832283958384830E9457
:1018B000671EEDB7FEB736960FB6F894FEBF0FBEA3
:1018C000EDBF0E94860300D000D000D0EDB7FEB778
:1018D0003196ADB7BEB712961C930E93119724E7BD
:1018E00031E033832283958384830E94671E0F90A7
:1018F0000F90EDB7FEB71283018384E591E09483E6
:1019000083830E94671E0F900F900F900F9084E1C9
:1019100090E00E9436012E960FB6F894DEBF0FBEFF
:10192000CDBFCF91DF911F910F91FF90EF90DF908E
:10193000CF900895CF92DF92EF92FF920F931F9373
:10194000DF93CF93CDB7DEB72E970FB6F894DEBFF7
:101950000FBECDBFC982DA82EB82FC820D831E836B
:101960002F83388749875A876B877C878D879E8727
:101970000E94940100D000D000D0EDB7FEB73196A0
:101980008E010F5F1F4FADB7BEB712961C930E931B
:10199000119721E931E033832283848315820E94E9
:1019A000671EEDB7FEB736960FB6F894FEBF0FBEB2
:1019B000EDBF0E94EC0100D000D000D0EDB7FEB723
:1019C0003196ADB7BEB712961C930E9311972AEAC3
:1019D00031E033832283848315820E94671EEDB732
:1019E000FEB736960FB6F894FEBF0FBEEDBF0E944D
:1019F000440200D000D000D0EDB7FEB73196ADB7AD
:101A0000BEB712961C930E93119723EC31E03383EB
:101A10002283848315820E94671E0F900F90EDB77A
:101A2000FEB71283018384E591E0948383830E944F
:101A3000671E0F900F900F900F9084E190E00E942E
:101A400036012E960FB6F894DEBF0FBECDBFCF91F4
:101A5000DF911F910F91FF90EF90DF90CF9008954D
:101A600086E492E00C94681A86E492E00C94181ACA
:101A700084B7877F84BF88E10FB6F89480936000B5
:101A8000109260000FBE90E080E80FB6F89480934B
:101A90006100909361000FBE80E090E0FC01E6548D
:101AA000FD4F1082019680319105C1F70C941A16F2
:101AB0002F923F924F925F926F927F928F929F925E
:101AC000AF92BF92CF92DF92EF92FF920F931F934C
:101AD000CF93DF93EC01A880B980CA80DB806C8053
:101AE0007D808E809F80288439844A845B84C601EF
:101AF000B501A60195010E944D1D7B018C01C40119
:101B0000B301A40193010E944D1D9B01AC01C801CA
:101B1000B7010E941E1B7B018C01C201B101A20111
:101B200091010E944D1D9B01AC01C801B7010E94AB
:101B30001E1B0E94D41D7B018C01C601B501A801AA
:101B400097010E94E81B688379838A839B83C40181
:101B5000B301A80197010E94E81B6C837D838E83EB
:101B60009F83C201B101A80197010E94E81B688709
:101B700079878A879B87DF91CF911F910F91FF9083
:101B8000EF90DF90CF90BF90AF909F908F907F901D
:101B90006F905F904F903F902F9008954F925F927B
:101BA0006F927F928F929F92AF92BF92CF92DF926D
:101BB000EF92FF920F931F93DF93CF93CDB7DEB7D2
:101BC00064970FB6F894DEBF0FBECDBF2C01C9825B
:101BD000DA82EB82FC820D831E832F83388749874C
:101BE0005A876B877C87A980BA80CB80DC806D8028
:101BF0007E808F80988489859A85AB85BC858D870A
:101C00009E87AF87B88BD201E0E9F2E08CE00190CB
:101C10000D928150E1F7C601B501A60195010E9420
:101C20004D1D7B018C01C401B301A40193010E94ED
:101C30004D1D9B01AC01C801B7010E941E1B7B0119
:101C40008C016D857E858F8598899B01AC010E94F2
:101C50004D1D9B01AC01C801B7010E941E1B0E94D3
:101C6000D41D698B7A8B8B8B9C8B6D857E858F8544
:101C7000988920E030E040E050E00E94E41B882397
:101C80002CF5C601B50129893A894B895C890E94E6
:101C9000E81B0E940F1B26EF38E245E652EC0E943B
:101CA0004D1DD2016D937D938D939C931397C40129
:101CB000B30129893A894B895C890E94E81B0E94FB
:101CC0000F1B26EF38E245E652EC24C0C601B501F1
:101CD00029893A894B895C890E94E81B0E940F1B65
:101CE00026EF38E245E652E40E944D1DD2016D9385
:101CF0007D938D939C931397C401B30129893A89ED
:101D00004B895C890E94E81B0E940F1B26EF38E27A
:101D100045E652E40E944D1DF2016483758386837B
:101D20009783D2016D917D918D919C9120E030E05F
:101D300044EB52E40E941D1B7B018C01F201608385
:101D400071838283938320E030E044E353EC0E946C
:101D5000E41B882374F4C801B70120E030E044EBB1
:101D600053E40E941E1BD2016D937D938D939C932F
:101D70001397F201648175818681978120E030E0BC
:101D800044EB52E40E941D1B7B018C01D20114968E
:101D90006D937D938D939C93179720E030E044E3FF
:101DA00053EC0E94E41B88236CF4C801B70120E0C7
:101DB00030E044EB53E40E941E1BF2016483758300
:101DC000868397836D857E858F85988929893A8951
:101DD0004B895C890E94E81B0E940F1B26EF38E2AA
:101DE00045E652E40E944D1DD20118966D937D93F5
:101DF0008D939C931B97C20164960FB6F894DEBF37
:101E00000FBECDBFCF91DF911F910F91FF90EF904B
:101E1000DF90CF90BF90AF909F908F907F906F900A
:101E20005F904F9008952F923F924F925F926F92E2
:101E30007F928F929F92AF92BF92CF92DF92EF925A
:101E4000FF920F931F93DF93CF93CDB7DEB7CE589A
:101E5000D1400FB6F894DEBF0FBECDBFC357DE4FE3
:101E600099838883CD58D140DC01E8E7F2E08CE02B
:101E700001900D928150E1F7AA24BB24EDE06E2E73
:101E8000712C6C0E7D1E4E010894811C911CC401A6
:101E9000B3010E948404C4011CD9C501880F991F95
:101EA0008A0D9B1D880F991F880F991F880D991DFA
:101EB0004896C980DA80EB80FC800D811E812F81DD
:101EC000388549855A856B857C8568DE0894A11C18
:101ED000B11C84E1A816B104D1F659E1E52EF12C2C
:101EE000EC0EFD1E870180E090E0A0E0B0E0C75757
:101EF000DE4F88839983AA83BB83C958D1401C01D4
:101F00002D013C014D0149E0C42E41E0D42ECC0E00
:101F1000DD1EC401B301D8012D913D914D915C911D
:101F20000E941E1B3B014C01C201B101F80124813A
:101F30003581468157810E941E1B1B012C01C7570A
:101F4000DE4F688179818A819B81C958D140D8014F
:101F500018962D913D914D915C911B970E941E1BEF
:101F6000C757DE4F688379838A839B83C958D140E2
:101F7000045F1F4F0C151D0561F680E090E0A0E0A6
:101F8000B0E0CB57DE4F88839983AA83BB83C558C3
:101F9000D140CF57DE4F88839983AA83BB83C15832
:101FA000D1405C016D01D7012D913D914D915C9126
:101FB000CA01B9010E944D1D9B01AC01C601B501CA
:101FC0000E941E1B5B016C01F70124813581468153
:101FD0005781CA01B9010E944D1D9B01AC01CF5729
:101FE000DE4F688179818A819B81C158D1400E94EE
:101FF0001E1BCF57DE4F688379838A839B83C1582A
:10200000D140D70118962D913D914D915C911B9730
:10201000CA01B9010E944D1D9B01AC01CB57DE4F97
:10202000688179818A819B81C558D1400E941E1B9D
:10203000CB57DE4F688379838A839B83C558D14011
:10204000ECE0F0E0EE0EFF1EE016F10609F0ABCF7B
:10205000C401B301A40193010E944D1D20E030E0B2
:1020600040EA51EC0E94E81B9B01AC01C601B5019E
:102070000E941E1B20E030E048E951E40E94E81B6A
:102080009B01AC01C357DE4FA881B981CD58D14027
:102090006D917D918D919C910E941E1BC357DE4FC7
:1020A000E881F981CD58D140608371838283938325
:1020B000C201B101A20191010E944D1D20E030E05A
:1020C00040EA51EC0E94E81B9B01AC01CF57DE4F68
:1020D000688179818A819B81C158D1400E941E1BF1
:1020E00020E030E048E951E40E94E81B9B01AC018C
:1020F000C357DE4FA881B981CD58D14014966D9158
:102100007D918D919C9117970E941E1BC357DE4FA6
:10211000E881F981CD58D1406483758386839783A4
:10212000C757DE4F688179818A819B81C958D14028
:102130009B01AC010E944D1D20E030E040EA51ECD3
:102140000E94E81B9B01AC01CB57DE4F688179816F
:102150008A819B81C558D1400E941E1B20E030E03F
:1021600048E951E40E94E81B9B01AC01C357DE4FD4
:10217000A881B981CD58D14018966D917D918D91EE
:102180009C911B970E941E1BC357DE4FE881F9816B
:10219000CD58D1406087718782879387CF01C2571E
:1021A000DE4F0FB6F894DEBF0FBECDBFCF91DF91EB
:1021B0001F910F91FF90EF90DF90CF90BF90AF9065
:1021C0009F908F907F906F905F904F903F902F9057
:1021D0000895AF92BF92CF92DF92EF92FF920F934A
:1021E0001F93DF93CF93CDB7DEB768970FB6F89400
:1021F000DEBF0FBECDBF5C018E010F5F1F4FC80158
:10220000BE01635F7F4F0E948404C8010E94690879
:10221000C501C980DA80EB80FC800D811E812F8191
:10222000388549855A856B857C85B8DCF5016081E8
:1022300071818281938120E030E040E050E00E9493
:10224000E41B882354F4F50180859185A285B3852C
:10225000B05880879187A287B387C50168960FB66B
:10226000F894DEBF0FBECDBFCF91DF911F910F91CC
:10227000FF90EF90DF90CF90BF90AF9008952F9296
:102280003F924F925F926F927F928F929F92AF9206
:10229000BF92CF92DF92EF92FF920F931F93DF9343
:1022A000CF93CDB7DEB76C970FB6F894DEBF0FBEF5
:1022B000CDBF3C014B012A01E0902E02F0902F028D
:1022C0000091300210913102DB016D917D918D9171
:1022D0009C91A80197010E941D1B5B016C016091FC
:1022E0003A0270913B0280913C0290913D02A8011C
:1022F00097010E941D1B9B01AC01C601B5010E9404
:10230000E81B9B01AC010E941E1B20E030E040E86E
:102310005FE30E941D1BF4016083718382839383BA
:10232000E0903202F09033020091340210913502B5
:102330006481758186819781A80197010E941D1B88
:102340005B016C0160913E0270913F0280914002FE
:1023500090914102A80197010E941D1B9B01AC01B5
:10236000C601B5010E94E81B9B01AC010E941E1B27
:1023700020E030E040E85FE30E941D1BD40114968A
:102380006D937D938D939C931797E0903602F09018
:102390003702009138021091390218966D917D91A3
:1023A0008D919C911B97A80197010E941D1B5B01B9
:1023B0006C016091420270914302809144029091BD
:1023C0004502A80197010E941D1B9B01AC01C6019B
:1023D000B5010E94E81B9B01AC010E941E1B20E07E
:1023E00030E040E85FE30E941D1BF40160877187C5
:1023F00082879387C401B3018E010F5F1F4FA8012D
:102400000E949B07C80154DBFDE0EF2EF12CEC0E7F
:10241000FD1EC301B801A7010E949B07C70148DB4D
:10242000D201AD90BD90CD90DC90139714966D9035
:102430007D908D909C90179718968D919D910D9001
:10244000BC91A02D898F9A8FAB8FBC8FC601B5012F
:1024500029813A814B815C810E944D1D7B018C0159
:10246000C401B3012D813E814F8158850E944D1DCD
:102470009B01AC01C801B7010E941E1B7B018C01AE
:10248000698D7A8D8B8D9C8D29853A854B855C85F0
:102490000E944D1D9B01AC01C801B7010E941E1B8B
:1024A0001B012C01C601B5012D853E854F8558893C
:1024B0000E944D1D7B018C01C401B30129893A8919
:1024C0004B895C890E944D1D9B01AC01C801B7017D
:1024D0000E941E1B7B018C01698D7A8D8B8D9C8DDA
:1024E0002D893E894F89588D0E944D1D9B01AC015D
:1024F000C801B7010E941E1B9B01AC01C201B101C2
:102500000E94911B20E030E044E353E40E944D1D03
:102510002BED3FE049E450E40E94E81B0E94B01D0F
:102520007B018C0120E030E044E353E40E94421D33
:10253000181654F4C801B70120E030E044EB53E42E
:102540000E941D1B7B018C01C801B70120E030E017
:1025500044E353EC0E94E41B882354F4C801B70100
:1025600020E030E044EB53E40E941E1B7B018C0111
:10257000B701C8016C960FB6F894DEBF0FBECDBF91
:10258000CF91DF911F910F91FF90EF90DF90CF904F
:10259000BF90AF909F908F907F906F905F904F9083
:1025A0003F902F9008956F927F928F929F92AF925B
:1025B000BF92CF92DF92EF92FF920F931F93DF9320
:1025C000CF93CDB7DEB7A4970FB6F894DEBF0FBE9A
:1025D000CDBF3C01DE015996E4E8F2E08CE00190C9
:1025E0000D928150E1F78E01035F1F4F7E01089429
:1025F000E11CF11CC701B8010E948404C701B801A5
:10260000AE01475E5F4F3BDE4B015C01C7010E949C
:102610006908C301C980DA80EB80FC800D811E81CE
:102620002F81388549855A856B857C85B7DAF3011A
:1026300080869186A286B386C301A4960FB6F894CD
:10264000DEBF0FBECDBFCF91DF911F910F91FF90E5
:10265000EF90DF90CF90BF90AF909F908F907F9042
:102660006F900895AF92BF92CF92DF92EF92FF9258
:102670000F931F93DF93CF93CDB7DEB72C970FB691
:10268000F894DEBF0FBECDBF8E010F5F1F4FC80194
:102690008ADFA6EDB2E0F8018CE001900D92815046
:1026A000E1F78E010F5F1F4FC8010E946109A2EE82
:1026B000B2E0F8018CE001900D928150E1F7609159
:1026C000EE027091EF028091F0029091F102209160
:1026D000E2023091E3024091E4025091E502AED76C
:1026E0006093EE027093EF028093F0029093F102F8
:1026F0006091F2027091F3028091F4029091F502E0
:102700002091E6023091E7024091E8025091E902FF
:1027100095D76093F2027093F3028093F402909342
:10272000F5026091F6027091F7028091F8029091A3
:10273000F9022091EA023091EB024091EC025091B3
:10274000ED027CD76093F6027093F7028093F80253
:102750009093F9028091D6029091D702A091D8026D
:10276000B091D9025C016D01D7FAD094D7F8D0941A
:10277000A092D602B092D702C092D802D092D902CB
:102780006091DE027091DF028091E0029091E1029F
:1027900020910203309103034091040350910503FB
:1027A0004CD77B018C0120E030E040E751EC0E94E7
:1027B000E41B18165CF000D000D086E093E0EDB783
:1027C000FEB7928381838CED91E08CC0C801B70184
:1027D00020E030E040E751E40E94421D88235CF095
:1027E00000D000D086E093E0EDB7FEB792838183FE
:1027F0008BEE91E077C06091DA027091DB028091FC
:10280000DC029091DD022091FE023091FF024091A6
:1028100000035091010311D77B018C0120E030E0CF
:1028200040E751E40E94421D88235CF000D000D0B4
:1028300086E093E0EDB7FEB7928381838BEF91E062
:1028400051C0C801B70120E030E040E751ECBCD7EF
:102850001816ACF0C801B70120E030E048EC52ECAB
:102860000E94421D88235CF000D000D086E093E0F7
:10287000EDB7FEB7928381838AE092E033C0C60150
:10288000B5012091FA023091FB024091FC02509177
:10289000FD02D3D67B018C0120E030E040EA51E418
:1028A0000E94421D88235CF000D000D086E093E0B7
:1028B000EDB7FEB79283818387E192E013C0C80130
:1028C000B70120E030E040EA51EC7ED7181694F0D2
:1028D00000D000D086E093E0EDB7FEB7928381830D
:1028E00082E292E0948383830E94671E0F900F9090
:1028F0000F900F902C960FB6F894DEBF0FBECDBF91
:10290000CF91DF911F910F91FF90EF90DF90CF90CB
:10291000BF90AF9008951F920F920FB60F9211249F
:102920002F933F934F935F936F937F938F939F93D7
:10293000AF93BF93EF93FF9380915E0290915F02FC
:10294000909385008093840078948CDEFF91EF91C2
:10295000BF91AF919F918F917F916F915F914F91B7
:102960003F912F910F900FBE0F901F9018950F93CE
:102970001F93DF93CF93CDB7DEB72C970FB6F894A4
:10298000DEBF0FBECDBF0E94740B80E090E0A0E0E0
:10299000B0E08093CA029093CB02A093CC02B09394
:1029A000CD028093CE029093CF02A093D002B09339
:1029B000D1028093D2029093D302A093D402B09319
:1029C000D50288EE93E020E931E0F9013197F1F783
:1029D0000197D9F74DD80E946B0B88EE93E020E960
:1029E00031E0F9013197F1F70197D9F78E010F5FC7
:1029F0001F4FC801D8DDAAEFB2E0F8018CE00190CA
:102A00000D928150E1F78091FA029091FB02A09122
:102A1000FC02B091FD02B0588093FA029093FB0241
:102A2000A093FC02B093FD02789486E492E066E005
:102A300073E068D4789486E492E0B6D415D4FBCFE2
:102A4000DA01923049F0933061F09130F9F4E1E02D
:102A5000F1E022E130E01EC0E3E1F1E02EE330E0FE
:102A600019C0813049F0813018F0823079F408C003
:102A7000E1E5F1E0849107C0E5E5F1E0849103C070
:102A8000EFE6F1E08491282F30E004C0E0E0F0E0D0
:102A900020E030E0ED93FC93C9010895382F282FF2
:102AA0002CC02093E900231721F4762F942F50E0B7
:102AB00006C07091EC009091ED005091F00091FFF4
:102AC0001BC08091EB008E7F8093EB008091ED0026
:102AD0008D7F8093ED008091EB0081608093EB000F
:102AE0007093EC009093ED005093F0008091EE0015
:102AF00087FD02C080E008952F5F273090F2309369
:102B0000E90081E008958091190388239CF404C0B2
:102B1000809118038823B9F08091E80082FFF8CFF4
:102B20008091E8008B778093E800089580911803E6
:102B3000882349F08091E80080FFF8CF8091E80079
:102B40008E778093E80008954091E4005091E5006D
:102B500024E68091EC0080FF24C08091E80080FD95
:102B60001EC080911803882311F482E008958530F7
:102B700011F483E008958091EB0085FF02C081E0AD
:102B800008958091E4009091E5008417950709F37A
:102B9000222311F484E008952150AC01DACF80E0C3
:102BA00008958091E80082FFDCCFF9CFEF92FF9289
:102BB0000F931F934AD051D008ED10E0F8018081A7
:102BC0008F77808380818068808380818F7D808300
:102BD00019BC10921803109214031092160310924D
:102BE000150380EEE82EF12CF70180818B7F808326
:102BF000F80180818160808380E060E042E04EDF08
:102C0000E1EEF0E080818E7F8083E2EEF0E0808173
:102C100081608083808188608083F70180818E7FDE
:102C20008083F8018081806180831F910F91FF90E4
:102C3000EF900895E7EDF0E080818160808384E08B
:102C400082BF81E080931703B1CFE8EDF0E080818F
:102C50008E7F80831092E20008951092DA00109225
:102C6000E10008951F920F920FB60F9211242F9337
:102C70003F934F935F936F937F938F939F93AF9304
:102C8000BF93EF93FF938091E10082FF0AC0809190
:102C9000E20082FF06C08091E1008B7F8093E1001B
:102CA000E2D28091DA0080FF1FC08091D80080FFBF
:102CB0001BC08091DA008E7F8093DA008091D9006A
:102CC00080FF0DC080E189BD82E189BD09B400FEAD
:102CD000FDCF81E0809318030E94690B05C019BCE9
:102CE000109218030E946A0B8091E10080FF18C0C7
:102CF0008091E20080FF14C08091E2008E7F80937B
:102D0000E2008091E20080618093E2008091D8002F
:102D100080628093D80019BC85E080931803A3D209
:102D20008091E10084FF2DC08091E20084FF29C0E2
:102D300080E189BD82E189BD09B400FEFDCF8091AB
:102D4000D8008F7D8093D8008091E1008F7E8093A2
:102D5000E1008091E2008F7E8093E2008091E200AA
:102D600081608093E20080911403882331F4809184
:102D7000E30087FD02C081E001C084E08093180376
:102D800072D28091E10083FF22C08091E20083FF34
:102D90001EC08091E100877F8093E10082E08093F4
:102DA0001803109214038091E1008E7F8093E1005C
:102DB0008091E2008E7F8093E2008091E20080614A
:102DC0008093E20080E060E042E068DE4CD2FF9158
:102DD000EF91BF91AF919F918F917F916F915F9193
:102DE0004F913F912F910F900FBE0F901F9018950C
:102DF0009C0140911F03509120034617570718F478
:102E0000F90190E045C06115710511F0AB01F8CFF3
:102E10008091E8008E778093E80040E050E0F0CFAA
:102E200080911803882309F445C0853009F444C013
:102E30008091E80083FF02C081E008958091E8005E
:102E400082FD32C08091E80080FF22C08091F300B3
:102E50009091F200782F60E0292F30E0262B372B5D
:102E600007C081918093F100415050402F5F3F4F48
:102E70004115510519F02830310598F390E02830BC
:102E8000310509F491E08091E8008E778093E800A5
:102E90004115510529F6992319F606C080911803AA
:102EA000882341F0853041F08091E80082FFF6CF21
:102EB00080E0089582E0089583E008959C014091A8
:102EC0001F03509120034617570718F4F90190E0AB
:102ED00046C06115710511F0AB01F8CF8091E80093
:102EE0008E778093E80040E050E0F0CF80911803A7
:102EF000882309F447C0853009F446C08091E80072
:102F000083FF02C081E008958091E80082FD34C013
:102F10008091E80080FF23C08091F3009091F2003F
:102F2000782F60E0292F30E0262B372B08C08491C2
:102F30008093F1003196415050402F5F3F4F411533
:102F4000510519F02830310590F390E02830310513
:102F500009F491E08091E8008E778093E8004115B4
:102F6000510521F6992309F0C1CF06C080911803BD
:102F7000882341F0853041F08091E80082FFF6CF50
:102F800080E0089582E0089583E008950F931F93F1
:102F9000DF93CF93CDB7DEB7AC970FB6F894DEBF13
:102FA0000FBECDBFE9E1F3E08091F100819323E012
:102FB000E132F207C9F70E94300D8091E80083FFEB
:102FC00039C18091190330911A03353009F487C053
:102FD000363040F43130C9F1313070F0333009F01F
:102FE00029C133C0383009F4F6C0393009F405C1BD
:102FF000363009F01FC197C0803821F0823809F0BF
:1030000019C108C09091150380911603882399F087
:10301000926011C080911D038F708093E9008091B0
:10302000EB0090E025E0969587952A95E1F7982F9B
:1030300091701092E9008091E800877F8093E8000A
:103040009093F1001092F100D1C0882319F08230E2
:1030500009F0F0C090E08F719070009721F0029716
:1030600009F0E8C00CC080911B03813009F0E2C078
:1030700010921603333069F5809316032AC08091AD
:103080001B03882331F520911D032F7009F4D2C052
:103090002093E9008091EB0080FF1BC0333021F4C6
:1030A0008091EB00806213C08091EB00806180937F
:1030B000EB0081E090E002C0880F991F2A95E2F7AB
:1030C0008093EA001092EA008091EB008860809380
:1030D000EB001092E9008091E800877F8AC0882386
:1030E00009F0A8C010911B031F770FB7F8948091C7
:1030F000E800877F8093E80006DD8091E80080FF8C
:10310000FCCF8091E3008078812B8093E30080687E
:103110008093E300112311F482E001C083E08093E7
:1031200018030FBF87C08058823008F083C0809199
:103130001B0390911C0323E08C3D920709F033C0E0
:1031400083E08C838AE28B837FB7F894DE01159647
:103150006EE040E050E011E2E62FF0E010935700FF
:10316000849140FF03C082958F706F5F8F70282F0E
:1031700030E08A3018F0C901C79602C0C901C09674
:103180008D939D934F5F5F4F4431510529F77FBF6A
:103190008091E800877F8093E800CE0103966AE281
:1031A00070E026DE12C060911D03AE014F5F5F4FDD
:1031B00047DCBC01009709F43DC08091E800877F9F
:1031C0008093E80089819A8179DE8091E8008B778D
:1031D0008093E8002FC0803869F58091E800877FF0
:1031E0008093E800809114038093F1008091E800BF
:1031F0008E778093E80087DC1DC08823D9F49091F6
:103200001B039230B8F48091E800877F8093E80038
:103210009093140378DC80911403882331F4809117
:10322000E30087FD02C081E001C084E080931803C1
:103230000E94340D8091E80083FF0AC08091EB006A
:1032400080628093EB008091E800877F8093E800A4
:10325000AC960FB6F894DEBF0FBECDBFCF91DF9115
:103260001F910F91089508951F938091180388234B
:1032700061F01091E9001092E9008091E80083FF6D
:1032800001C084DE1F701093E9001F910895FC01B6
:1032900080911803843091F581899289A389B4893A
:1032A0000097A105B10551F185818093E9008091D6
:1032B000E80082FF23C04091F3002091F200942F98
:1032C00080E030E0822B932B892B19F46FEF7FEF96
:1032D00004C08091F100682F70E04091F3002091CC
:1032E000F200942F80E030E0822B932B892B41F465
:1032F0008091E8008B778093E80002C06FEF7FEF4A
:10330000CB010895FB012EE0DB011D922A95E9F720
:1033100023E0238329E03AE13187208725E939E159
:1033200033872287958784870895FC018485958556
:10333000AEDF9C0197FF02C02EEF3FEFC901089559
:103340000895FC0180911803843049F581899289A0
:10335000A389B4890097A105B10509F18181809302
:10336000E9004091F3002091F200942F80E030E0DA
:10337000822B932B892BA9F09091E8008091E80093
:103380008E778093E80095FD0CC0DEDB982F8823B4
:1033900049F48091E8008E778093E80003C092E0C2
:1033A00001C090E0892F0895FC01809118038430BA
:1033B00051F481899289A389B4890097A105B10547
:1033C00011F0CF01BECF08951F93FC01162F8091FD
:1033D00018038430D9F481899289A389B48900972C
:1033E000A105B10599F081818093E9008091E80001
:1033F00085FD08C08091E8008E778093E800A4DB0B
:10340000882329F41093F10080E001C082E01F912D
:103410000895282FFB0184859585622FD5DF8823A9
:1034200019F420E030E002C02FEF3FEFC90108950A
:103430001F93CF93DF93EC010D96FC018BE0DF012E
:103440001D928A95E9F711E08981181729F46A819C
:103450007B818C8150E807C08D81181731F46E8113
:103460007F81888550E032E008C08985181739F5DA
:103470006A857B858C8550E833E0882311F440E031
:1034800001C044E020E088E090E003C02F5F880F97
:10349000991F86179707D0F3832F90E036E0880FA7
:1034A000991F3A95E1F760E0511161E0682B4260A5
:1034B0002295207F422B812FF1DA882329F01F5F8C
:1034C000173009F0C1CF81E0DF91CF911F910895AE
:1034D000CF93DF93EC018091E80083FF9DC088814A
:1034E00090E020911D0330911E032817390709F041
:1034F00093C080911A03813269F0823220F48032C5
:1035000009F08AC03CC0823209F465C0833209F0F8
:1035100083C074C080911903813A09F07DC0809105
:10352000E800877F8093E8008091E80080FFFCCF6F
:1035300089899A89AB89BC898093F100292F3A2F18
:103540004B2F55272093F1009D01442755272093A9
:10355000F1008B2F9927AA27BB278093F1008D8933
:103560008093F1008E898093F1008F898093F10020
:103570008091E8008E778093E800C5DA4DC0809195
:103580001903813209F048C08091E800877F809359
:10359000E8008091E80082FFFCCF8091F1009091DB
:1035A000F1002091F1003091F100898B9A8B2B8BE7
:1035B0003C8B8091F1008D8B8091F1008E8B8091FE
:1035C000F1008F8B8091E8008B778093E8009BDA85
:1035D000CE01B6DE21C0809119038132E9F48091D9
:1035E000E800877F8093E8008EDA80911B0390913A
:1035F0001C039E878D87CE01A3DE0EC08091190328
:10360000813251F48091E800877F8093E8007BDA73
:10361000CE0160911B0394DEDF91CF9108959F93BB
:103620009F777BD10F9000203AF49058A2EA2AEDC0
:103630003FE049E450E413D0EBC15058BB27AA2720
:103640000ED0E6C1D7D130F0DCD120F031F49F3F6D
:1036500011F41EF4A7C10EF4E095E7FB9DC1E92F1C
:10366000E8D180F3BA17620773078407950718F04B
:1036700071F49EF500C20EF4E0950B2EBA2FA02D2A
:103680000B01B90190010C01CA01A0011124FF270F
:10369000591B99F0593F50F4503E68F11A16F0400A
:1036A000A22F232F342F4427585FF3CF4695379509
:1036B0002795A795F0405395C9F77EF41F16BA0BCE
:1036C000620B730B840BBAF09150A1F0FF0FBB1F7C
:1036D000661F771F881FC2F70EC0BA0F621F731FC5
:1036E000841F48F4879577956795B795F7959E3F22
:1036F00008F0B3CF9395880F08F09927EE0F9795B0
:103700008795089577D158F080E891E009F49EEF0D
:1037100078D128F040E851E059F45EEF09C042C189
:10372000AAC1E92FE07885D168F3092E052AC1F3F3
:10373000261737074807590738F00E2E07F8E025F7
:1037400069F0E025E0640AC0EF6307F8009407FA27
:10375000DB01B9019D01DC01CA01AD01EF9347D046
:1037600057D10AD05F91552331F02BED3FE049E46A
:1037700050FD49EC63CF0895DF93DD27B92FBF7764
:1037800040E85FE31616170648075B0710F4D92FC9
:103790007DD19F938F937F936F9344D2ECEAF0E0B7
:1037A00004D136D12F913F914F915F9182D1DD238A
:1037B00049F09058A2EA2AED3FE049EC5FE3D07867
:1037C0005D274DDFDF9124C1C3D008F481E0089567
:1037D0000CD01EC116D140F00DD130F021F45F3F66
:1037E00019F0DAC0511148C1DDC023D198F39923F3
:1037F000C9F35523B1F3951B550BBB27AA276217B5
:103800007307840738F09F5F5F4F220F331F441FF9
:10381000AA1FA9F333D00E2E3AF0E0E830D0915031
:103820005040E695001CCAF729D0FE2F27D0660F1E
:10383000771F881FBB1F261737074807AB07B0E85D
:1038400009F0BB0B802DBF01FF2793585F4F2AF073
:103850009E3F510568F0A0C00FC15F3FECF3983E5A
:10386000DCF3869577956795B795F7959F5FC9F7D0
:10387000880F911D9695879597F90895E1E0660F59
:10388000771F881FBB1F621773078407BA0720F0D2
:10389000621B730B840BBA0BEE1F88F7E09508953B
:1038A000E89409C097FB3EF49095809570956195DA
:1038B0007F4F8F4F9F4F9923A9F0F92F96E9BB2790
:1038C0009395F695879577956795B795F111F8CF0C
:1038D000FAF4BB0F11F460FF1BC06F5F7F4F8F4F77
:1038E0009F4F16C0882311F096E911C0772321F06D
:1038F0009EE8872F762F05C0662371F096E8862F05
:1039000070E060E02AF09A95660F771F881FDAF75B
:10391000880F9695879597F90895DF93CF931F9316
:103920000F938B01EC01E9EDF0E03FD071D09801ED
:10393000AE018B01EC0160E070E080E89FE37DDE8A
:1039400033D19801AE010F911F91CF91DF91B1C09A
:10395000990F0008550FAA0BE0E8FEEF16161706A0
:10396000E807F907C0F012161306E407F50798F008
:10397000621B730B840B950B39F40A2661F0232B21
:10398000242B252B21F408950A2609F4A140A6959D
:103990008FEF811D811D089597F99F6780E870E082
:1039A00060E008959FEF80EC0895DF93CF931F931D
:1039B0000F93FF92EF92DF927B018C01689405C018
:1039C000DA2EEF0176D0FE01E894A591259135918C
:1039D00045915591AEF3EF0142DEFE019701A8013A
:1039E000DA9479F7DF90EF90FF900F911F91CF91CC
:1039F000DF91089500240A94161617061806090682
:103A0000089500240A941216130614060506089554
:103A1000092E0394000C11F4882352F0BB0F40F4DC
:103A2000BF2B11F460FF04C06F5F7F4F8F4F9F4F1C
:103A3000089557FD9058440F551F59F05F3F71F09E
:103A40004795880F97FB991F61F09F3F79F0879505
:103A50000895121613061406551FF2CF4695F1DF8E
:103A600008C0161617061806991FF1CF869571051E
:103A7000610508940895E894BB2766277727CB0152
:103A800097F9089565DF08F48FEF08959B01AC0165
:103A900060E070E080E89FE39BCE0BD0B9CFAADF57
:103AA00028F0AFDF18F0952309F076CF7BCF1124F3
:103AB000E3CFBFDFA0F3959FD1F3950F50E0551FE3
:103AC000629FF001729FBB27F00DB11D639FAA2773
:103AD000F00DB11DAA1F649F6627B00DA11D661FC2
:103AE000829F2227B00DA11D621F739FB00DA11DE3
:103AF000621F839FA00D611D221F749F3327A00D9D
:103B0000611D231F849F600D211D822F762F6A2F38
:103B100011249F5750408AF0E1F088234AF0EE0FBD
:103B2000FF1FBB1F661F771F881F91505040A9F7CA
:103B30009E3F510570F030CF9FCF5F3FECF3983E32
:103B4000DCF3869577956795B795F795E7959F5F31
:103B5000C1F7FE2B880F911D9695879597F90895CB
:103B600070DFE0F09E37D8F09639B8F49E3848F40C
:103B7000672F782F8827985FF9CF86957795679577
:103B800093959539D0F3B62FB1706B0F711D811DD0
:103B900020F4879577956795939547C061C06CCF62
:103BA00011F40EF4FFCE5CC04CDFD0F39923D9F3AF
:103BB000CEF39F57550B87FF61D00024A0E640EA63
:103BC000900180585695979528F4805C660F771F72
:103BD000881F20F026173707480730F4621B730B45
:103BE000840B202931294A2BA69517940794202568
:103BF00031254A2758F7660F771F881F20F02617B0
:103C00003707480730F4620B730B840B200D311D0E
:103C1000411DA09581F7B901842F9158880F969581
:103C2000879508959B01AC0138CF882371F47723E1
:103C300021F09850872B762F07C0662311F499271F
:103C40000DC09051862B70E060E02AF09A95660FC7
:103C5000771F881FDAF7880F9695879597F908954B
:103C60009F3F31F0915020F4879577956795B795F0
:103C7000880F911D9695879597F90895915050401A
:103C8000660F771F881FD2F70895A1E21A2EAA1B8C
:103C9000BB1BFD010DC0AA1FBB1FEE1FFF1FA217FC
:103CA000B307E407F50720F0A21BB30BE40BF50BF9
:103CB000661F771F881F991F1A9469F76095709582
:103CC000809590959B01AC01BD01CF010895A0E0C6
:103CD000B0E0ECE6FEE18AC29E01275F3F4F8D8196
:103CE0009E816F817885A90103D02096E2E09AC277
:103CF000ABE0B0E0EDE7FEE169C23C012B015A0107
:103D0000FC0117821682838181FD03C06FEF7FEF74
:103D1000B9C19AE0892E1E010894211C311CF301BF
:103D20002381F20123FD859123FF81912F018823B7
:103D300009F4A5C1853239F423FD859123FF8191D2
:103D40002F01853221F490E0B301B6D1E8CF982F4E
:103D5000FF24EE249924FFE1FF15D0F09B3269F097
:103D60009C3228F4903259F0933291F40EC09D3277
:103D700049F0903369F441E024C052E0F52A84E030
:103D8000F82A28C098E0F92A25C0E0E1FE2A22C0DE
:103D9000F7FC29C0892F80538A3070F4F6FE05C0E5
:103DA000989C902C1124980E15C0E89CE02C1124AE
:103DB000E80EF0E2FF2A0EC09E3229F4F6FC5FC145
:103DC00040E4F42A07C09C3619F450E8F52A02C0F2
:103DD000983649F4F20123FD959123FF91912F012B
:103DE000992309F0B8CF892F8554833018F0805279
:103DF000833038F444E050E0A40EB51E5FE35983ED
:103E00000FC0933631F0933779F0933509F052C0F3
:103E10001FC0F5018081898342E050E0A40EB51EE9
:103E2000610101E010E011C0F501C080D180F6FC15
:103E300003C06FEF7FEF02C0692D70E042E050E0F9
:103E4000A40EB51EC6012DD18C015FE7F52213C06B
:103E5000F501C080D180F6FC03C06FEF7FEF02C098
:103E6000692D70E042E050E0A40EB51EC6010ED1EF
:103E70008C0150E8F52AF3FE06C018C080E290E0FD
:103E8000B3011AD1EA948E2D90E008171907B0F308
:103E90000DC0F601F7FC8591F7FE81916F0190E06E
:103EA000B3010AD1E110EA94015010400115110547
:103EB00081F7E2C0943611F0993661F5F7FE08C03B
:103EC000F501208131814281538184E090E00AC074
:103ED000F501808191819C01442737FD4095542F45
:103EE00082E090E0A80EB91E9FE6F92257FF09C0B4
:103EF00050954095309521953F4F4F4F5F4FE0E8EB
:103F0000FE2ACA01B901A1012AE030E001D1D82E70
:103F1000D2183FC0953729F41F2D1F7E2AE030E0CC
:103F20001DC01F2D197F9F3661F0903720F4983502
:103F300009F0A5C00FC0903739F0983709F09FC03D
:103F400004C028E030E00AC0106114FD146020E1D4
:103F500030E004C014FD166020E132E017FF08C015
:103F6000F501608171818281938144E050E008C055
:103F7000F50180819181BC0180E090E042E050E059
:103F8000A40EB51EA101C4D0D82ED2188FE7F82EEA
:103F9000F122F6FE0BC05EEFF522D91438F4F4FEE0
:103FA00007C0F2FC05C08FEEF82202C01D2D01C033
:103FB000192DF4FE0DC0FE01ED0DF11D8081803341
:103FC00019F499EEF92208C01F5FF2FE05C003C084
:103FD0008F2D867809F01F5F0F2DF3FC13C0F0FEC4
:103FE0000EC01E1510F09D2C0AC09D2C9E0C911A1F
:103FF0001E2D05C080E290E0B3015ED01F5F1E154C
:10400000C8F304C01E1510F4E11A01C0EE2404FF29
:104010000EC080E390E0B3014FD002FF1BC001FD52
:1040200003C088E790E00EC088E590E00BC0802FC9
:10403000867881F001FF02C08BE201C080E2F7FCCC
:104040008DE290E0B30138D005C080E390E0B30189
:1040500033D09A94D914C8F3DA94F101ED0DF11D1F
:10406000808190E0B30128D0DD20B1F705C080E267
:1040700090E0B30121D0EA94EE20C9F750CEF301CD
:1040800066817781CB012B96E2E1BCC0FC010590F3
:10409000615070400110D8F7809590958E0F9F1F4A
:1040A0000895FC016150704001900110D8F780958F
:1040B00090958E0F9F1F08950F931F93CF93DF93BB
:1040C0008C01EB018B8181FF1BC082FF0DC02E8113
:1040D0003F818C819D812817390764F4E881F9813B
:1040E0000193F983E88306C0E885F985802F099557
:1040F000892B31F48E819F8101969F838E8302C02C
:104100000FEF1FEFC801DF91CF911F910F9108951D
:10411000FA01AA27283051F1203181F1E8946F93F8
:104120006E7F6E5F7F4F8F4F9F4FAF4FB1E03ED09E
:10413000B4E03CD0670F781F891F9A1FA11D680F3C
:10414000791F8A1F911DA11D6A0F711D811D911D6F
:10415000A11D20D009F468943F912AE0269F1124E4
:104160003019305D3193DEF6CF010895462F477048
:10417000405D4193B3E00FD0C9F7F6CF462F4F70A3
:10418000405D4A3318F0495D31FD4052419302D001
:10419000A9F7EACFB4E0A6959795879577956795A7
:1041A000BA95C9F700976105710508959B01AC01A7
:1041B0000A2E06945795479537952795BA95C9F7CE
:1041C000620F731F841F951FA01D08952F923F92A9
:1041D0004F925F926F927F928F929F92AF92BF9217
:1041E000CF92DF92EF92FF920F931F93CF93DF93C3
:1041F000CDB7DEB7CA1BDB0B0FB6F894DEBF0FBE20
:10420000CDBF09942A88398848885F846E847D846C
:104210008C849B84AA84B984C884DF80EE80FD806E
:104220000C811B81AA81B981CE0FD11D0FB6F894E4
:0E423000DEBF0FBECDBFED010895F894FFCFA5
:10423E004D61676E65746F6D65746572205820618F
:10424E00786973203D20253464200A004D61676E25
:10425E0065746F6D6574657220592061786973207D
:10426E003D20253464200A004D61676E65746F6DC4
:10427E0065746572205A2061786973203D2025345B
:10428E0064200A000A0D00416363656C65726F6DF0
:10429E006574657220592061786973203D2025343C
:1042AE0064200A00416363656C65726F6D657465A9
:1042BE0072205A2061786973203D20253464200ACB
:1042CE00004779726F73636F70652058206178694B
:1042DE0073203D20253464200A004779726F736382
:1042EE006F706520592061786973203D20253464F4
:1042FE00200A004779726F73636F7065205A2061D0
:10430E00786973203D20253464200A004D6F766550
:10431E006D656E74204C6566740A004D6F76656D22
:10432E00656E742052696768740A004D6F76656D0C
:10433E00656E7420446F776E0A004D6F76656D65FD
:10434E006E742055700A0054696C74204C65667446
:10435E000A0054696C742052696768740A00000080
:10436E00F6C30080FBC3004009C400C01044000027
:10437E00F7430000A14300031000000410000002E8
:10438E000800000000000000000000000000B888D7
:10439E00000000000000000000000000000000000F
:1043AE0000000000000000000000000000000000FF
:1043BE000000000000000000000080BF00000000B0
:1043CE0000000000000000000000000000000000DF
:1043DE0000000000000000000000000000000000CF
:0443EE0000000000CB
:00000001FF
