:10000000D3C00000EDC00000EBC00000E9C000005C
:10001000E7C00000E5C00000E3C00000E1C0000050
:10002000DFC00000DDC000000C94010AD9C0000050
:10003000D7C00000D5C00000D3C00000D1C0000070
:10004000CFC00000CDC00000CBC00000C9C0000080
:100050000C947A08C5C00000C3C00000C1C00000F5
:10006000BFC00000BDC00000BBC00000B9C00000A0
:10007000B7C00000B5C00000B3C00000B1C00000B0
:10008000AFC00000ADC00000ABC00000A9C00000C0
:10009000A7C00000A5C00000A3C00000A1C00000D0
:1000A0009FC000009DC000009BC00000084AD73BD5
:1000B0003BCE016E84BCBFFDC12F3D6C74319ABD37
:1000C00056833DDA3D00C77F11BED9E4BB4C3E915B
:1000D0006BAAAABE000000803F072C7AA5BA6CC5A7
:1000E00090DA3B9365FC8BBC53F810FD3C56928331
:1000F0004DBD879D3AB63DCBC9BF5BBE73DA0FC914
:100100003F0600FF0901A1010902150025FF75083E
:10011000950881020903150025FF750895089102CD
:10012000C01201100100000008EB034F2001000184
:1001300002000109022900010100C0320904000087
:10014000020300000009211101000122200007051F
:1001500081030800050705020308000504030904DC
:1001600018034400650061006E0020004300610038
:100170006D0065007200610000002C034C0055000A
:10018000460041002000470065006E0065007200D7
:10019000690063002000480049004400200044003A
:1001A00065006D006F00000011241FBECFEFDAE084
:1001B000DEBFCDBF11E0A0E0B1E0E4E1F3E202C0B8
:1001C00005900D92AA34B107D9F711E0AAE4B1E085
:1001D00001C01D92AF37B107E1F796D40C94881196
:1001E0000FCF2091B9002E7F2093B9002091B90044
:1001F0002D7F2093B9009C0140E050E060EA7FE051
:1002000080E090E00E946611203130F0822F90E073
:10021000409795958795282F2093B800089588E2F8
:1002200090E0DFDFECEBF0E0808184608083089574
:10023000519A84EA8093BC00089584E98093BC00BD
:10024000089520E030E08091BC0087FD06C02A358B
:10025000310519F02F5F3F4FF6CF0895882329F01D
:100260008091BC008F70806C04C08091BC008F7046
:1002700080688093BC0008958091BB0008950BC0F6
:1002800020E00000000000000000000000002F5FE0
:100290002A35B9F70197009799F708951F93182FFA
:1002A00081E090E0ECDF519A1093BB0084E88093EA
:1002B000BC001F910895BCDFC4DF80EDEFDFC1DF1C
:1002C0008EE3ECDFBEDF80E8E9DFBBDFB6DF8AE08C
:1002D00090E0D5DFADDFB5DF80EDE0DFB2DF86E1B6
:1002E000DDDFAFDF88E1DADFACDFA7DF8AE090E0B7
:1002F000C6DF9EDFA6DF80EDD1DFA3DF8EE3CEDF9A
:10030000A0DF80E0CBDF9DDF98CF92DF9ADF86EA27
:10031000C5DF97DF8DE2C2DF94DF88E0BFDF91DFCA
:100320008CDF86DF8EDF86EAB9DF8BDF81E3B6DF25
:1003300088DF88E0B3DF85DF80CF7ADF82DF8CE380
:10034000ADDF7FDF80E0AADF7CDF80E7A7DF79DF3A
:1003500074DF6EDF76DF8CE3A1DF73DF81E09EDF89
:1003600070DF80EA9BDF6DDF68DF62DF6ADF8CE3CE
:1003700095DF67DF82E092DF64DF80E08FDF61DF9F
:100380005CCFC3DFDACF2F923F924F925F926F9292
:100390007F928F929F92AF92BF92CF92DF92EF9215
:1003A000FF920F931F932C011B0142DF4ADF86EA65
:1003B00075DF47DF82E372DF44DF3FDF39DF41DF94
:1003C00087EA6CDF3EDF8FEF49DF3BDF55DF682ECA
:1003D00038DF80E043DF35DF4FDF33DF2EDF28DF1C
:1003E00030DF86EA5BDF2DDF83E358DF2ADF25DF9E
:1003F0001FDF27DF87EA52DF24DF8FEF2FDF21DFC8
:100400003BDF782E1EDF80E029DF1BDF35DF19DFC1
:1004100014DF0EDF16DF86EA41DF13DF84E33EDF01
:1004200010DF0BDF05DF0DDF87EA38DF0ADF8FEF34
:1004300015DF07DF21DF882E04DF80E00FDF01DF1B
:100440001BDFFFDEFADEF4DEFCDE86EA27DFF9DE04
:1004500085E324DFF6DEF1DEEBDEF3DE87EA1EDF86
:10046000F0DE8FEFFBDEEDDE07DF982EEADE80E0C8
:10047000F5DEE7DE01DFE5DEE0DEDADEE2DE86EA9B
:100480000DDFDFDE86E30ADFDCDED7DED1DED9DE9C
:1004900087EA04DFD6DE8FEFE1DED3DEEDDEA82EC5
:1004A000D0DE80E0DBDECDDEE7DECBDEC6DEC0DE2A
:1004B000C8DE86EAF3DEC5DE87E3F0DEC2DEBDDE3F
:1004C000B7DEBFDE87EAEADEBCDE8FEFC7DEB9DE6D
:1004D000D3DEB82EB6DE80E0C1DEB3DECDDEB1DE27
:1004E000ACDE2BDFA5DEADDE8DE3D8DEAADE8FEF3E
:1004F000B5DEA7DEC1DEF82EA4DE8FEFAFDEA1DE13
:10050000BBDEE82E9EDE8FEFA9DE9BDEB5DED82EA9
:1005100098DE8FEFA3DE95DEAFDEC82E92DE8FEF82
:100520009DDE8FDEA9DE182F8CDE8FEF97DE89DE51
:10053000A3DE082F86DE8DE3B1DE83DE7EDE772D3F
:1005400060E0772466297729882777FD8095982FA2
:100550000E94730FF2016083718382839383792DEC
:1005600060E0992468297929882777FD8095982F5C
:100570000E94730FF20164837583868397837B2DBA
:1005800060E0BB246A297B29882777FD8095982F16
:100590000E94730FF20160877187828793877F2D96
:1005A00060E0FF246E297F29882777FD8095982FAA
:1005B0000E94730FF1016083718382839383712F93
:1005C00060E010E0602B712B882777FD8095982FD5
:1005D0000E94730FF10164837583868397837D2D59
:1005E00060E0DD246C297D29882777FD8095982F90
:1005F0000E94730FF10160877187828793871F9133
:100600000F91FF90EF90DF90CF90BF90AF909F90B1
:100610008F907F906F905F904F903F902F900895B4
:100620004ACE08958F929F92AF92BF92CF92DF925F
:10063000EF92FF920F931F936C015B014A01FC0143
:100640006481758186819781F50120853185428598
:1006500053850E946E107B018C01F60160857185C7
:1006600082859385F50124813581468157810E94D9
:100670006E109B01AC01C801B7010E940D0EF40180
:100680006083718382839383F6016085718582859F
:100690009385F50120813181428153810E946E1042
:1006A0007B018C01F6016081718182819381F5016A
:1006B00020853185428553850E946E109B01AC01D7
:1006C000C801B7010E940D0EF4016483758386830F
:1006D0009783F6016081718182819381F501248184
:1006E0003581468157810E946E107B018C01F60195
:1006F0006481758186819781F501208131814281F4
:1007000053810E946E109B01AC01C801B7010E9489
:100710000D0EF40160877187828793871F910F9177
:10072000FF90EF90DF90CF90BF90AF909F908F9011
:100730000895AF92BF92CF92DF92EF92FF920F9304
:100740001F936C015B01FC01608171818281938147
:10075000F50120813181428153810E946E107B011D
:100760008C01F6016481758186819781F501248170
:100770003581468157810E946E109B01AC01C801F2
:10078000B7010E940E0E7B018C01F6016085718518
:1007900082859385F50120853185428553850E94A8
:1007A0006E109B01AC01C801B7010E940E0E1F9193
:1007B0000F91FF90EF90DF90CF90BF90AF90089592
:1007C0000F931F938C01FC01608171818281938161
:1007D00020E03EEF4FEF56E40E94D80E9B01AC01A3
:1007E0000E940E0EF801608371838283938364817B
:1007F00075818681978120E03EEF4FEF56E40E949D
:10080000D80E9B01AC010E940E0EF8016483758323
:1008100086839783608571858285938520E03EEF8E
:100820004FEF56E40E94D80E9B01AC010E940E0EC1
:10083000F80160877187828793871F910F910895D0
:100840008BB18F70806A8BB908958BB18F70806186
:100850008BB90895ECE5F1E080E8819391E0E4360E
:10086000F907D9F708950F931F938C0160916401E4
:100870007091650180916601909167010E94400F1F
:10088000F801608360916401709165018091660157
:10089000909167010E94400F672F770F770BF80147
:1008A0006183609168017091690180916A01909102
:1008B0006B010E94400FF8016283609168017091A2
:1008C000690180916A0190916B010E94400F672F2E
:1008D000770F770BF801638360916C0170916D0164
:1008E00080916E0190916F010E94400FF801648326
:1008F00060916C0170916D0180916E0190916F011A
:100900000E94400F672F770F770BF80165831682DF
:1009100017821F910F91089581E08AB983E08BB906
:100920007EDC2FDD7DCEAFE6B0E08C918E7F8C93A8
:10093000E0E8F0E080818C7F8083E1E8F0E0808176
:10094000877E80838C918D7F8C9380818B7F808349
:1009500080818260808380818E7F80838091180176
:100960009091190190938500809384008C9181600F
:100970008C9308950F931F93DF93CF93CDB7DEB77A
:1009800028970FB6F894DEBF0FBECDBF80917601D9
:10099000843091F582E08093E9008091E80082FF45
:1009A00014C08091E80085FF0BC08E010F5F1F4FC0
:1009B000C80168E070E040E050E0FBD6C8014ADFC3
:1009C0008091E8008B778093E80081E08093E900D4
:1009D0008091E80080FF10C08E010F5F1F4FC8019B
:1009E00042DFC80168E070E040E050E034D7809119
:1009F000E8008E778093E80028960FB6F894DEBF63
:100A00000FBECDBFCF91DF911F910F9108950F932E
:100A10001F93DF93CF93CDB7DEB728970FB6F89427
:100A2000DEBF0FBECDBF80917801813019F08930D3
:100A300081F518C080917701813A59F58E010F5FD9
:100A40001F4FC80110DF8091E800877F8093E80086
:100A5000C80168E070E099D58091E8008B778093B9
:100A6000E80017C080917701813299F48091E80005
:100A7000877F8093E8008E010F5F1F4FC80168E0F9
:100A800070E0E9D58091E8008E778093E800C80196
:100A9000E1DE28960FB6F894DEBF0FBECDBFCF9132
:100AA000DF911F910F9108950F931F9381E061ECE7
:100AB00042E0BBD3082F82E060EC42E0B6D310E006
:100AC00090E00823192300FF02C090E601C090E9DE
:100AD0008BB18F70982B9BB91F910F91089584B79C
:100AE000877F84BF88E10FB6F894809360001092EE
:100AF00060000FBE90E080E80FB6F894809361002C
:100B0000909361000FBE60C40EDF81E080935C01B2
:100B1000E6DF02DF88EE93E020E931E0F90131976A
:100B2000F1F70197D9F778947894FFCFCF92DF92BD
:100B3000EF92FF920F931F936C01B601FADD0E94B2
:100B4000F5107B018C01F6016081718182819381B6
:100B5000A80197010E94D80EF601608371838283F9
:100B600093836481758186819781A80197010E9492
:100B7000D80EF601648375838683978360857185BB
:100B800082859385A80197010E94D80EF60160879F
:100B90007187828793871F910F91FF90EF90DF906D
:100BA000CF9008954F925F926F927F928F929F9213
:100BB000AF92BF92CF92DF92EF92FF920F931F936B
:100BC000DF93CF93CDB7DEB764970FB6F894DEBF4F
:100BD0000FBECDBF2C01C982DA82EB82FC820D836D
:100BE0001E832F83388749875A876B877C87A98024
:100BF000BA80CB80DC806D807E808F8098848985F0
:100C00009A85AB85BC858D879E87AF87B88BD201CF
:100C1000E6E2F1E08CE001900D928150E1F7C6012F
:100C2000B501A60195010E946E107B018C01C401E3
:100C3000B301A40193010E946E109B01AC01C80195
:100C4000B701ECD77B018C016D857E858F859889F6
:100C50009B01AC010E946E109B01AC01C801B70161
:100C6000DDD70E94F510698B7A8B8B8B9C8B6D8501
:100C70007E858F85988920E030E040E050E00E943A
:100C8000D40E88231CF5C601B50129893A894B8900
:100C90005C890E94D80EB3D726EF38E245E652ECC5
:100CA0000E946E10D2016D937D938D939C93139748
:100CB000C401B30129893A894B895C890E94D80E05
:100CC0009ED726EF38E245E652EC22C0C601B501B8
:100CD00029893A894B895C890E94D80E90D726EFE2
:100CE00038E245E652E40E946E10D2016D937D9386
:100CF0008D939C931397C401B30129893A894B8939
:100D00005C890E94D80E7BD726EF38E245E652E494
:100D10000E946E10F2016483758386839783D201EB
:100D20006D917D918D919C9120E030E044EB52E4F7
:100D300074D77B018C01F20160837183828393837A
:100D400020E030E044E353EC0E94D40E88236CF49E
:100D5000C801B70120E030E044EB53E45FD7D20193
:100D60006D937D938D939C931397F20164817581AC
:100D70008681978120E030E044EB52E44ED77B013E
:100D80008C01D20114966D937D938D939C9317974C
:100D900020E030E044E353EC0E94D40E882364F456
:100DA000C801B70120E030E044EB53E437D7F2014B
:100DB00064837583868397836D857E858F85988907
:100DC00029893A894B895C89F3D719D726EF38E20C
:100DD00045E652E40E946E10D20118966D937D9301
:100DE0008D939C931B97C20164960FB6F894DEBF57
:100DF0000FBECDBFCF91DF911F910F91FF90EF906C
:100E0000DF90CF90BF90AF909F908F907F906F902A
:100E10005F904F9008954F925F926F927F928F9262
:100E20009F92AF92BF92CF92DF92EF92FF920F9379
:100E30001F93DF93CF93CDB7DEB768970FB6F894C3
:100E4000DEBF0FBECDBF3C014B012A01E090000187
:100E5000F09001010091020110910301FB016081FA
:100E6000718182819381A8019701D7D65B016C01C2
:100E700060910C0170910D0180910E0190910F0114
:100E8000A8019701CAD69B01AC01C601B50190D754
:100E90009B01AC01C3D620E030E040E85FE3BDD663
:100EA000F4016083718382839383E0900401F09066
:100EB0000501009106011091070164817581868109
:100EC0009781A8019701A9D65B016C01609110017F
:100ED000709111018091120190911301A801970165
:100EE0009CD69B01AC01C601B50162D79B01AC0148
:100EF00095D620E030E040E85FE38FD6F4016483CC
:100F0000758386839783E0900801F0900901009132
:100F10000A0110910B016085718582859385A80176
:100F200097017BD65B016C016091140170911501F2
:100F30008091160190911701A80197016ED69B012F
:100F4000AC01C601B50134D79B01AC0167D620E0E6
:100F500030E040E85FE361D6F40160877187828703
:100F60009387C401B3018E010F5F1F4FA8015ADBA5
:100F7000C801DCDD7DE0C72ED12CCC0EDD1EC30107
:100F8000B801A6014FDBC601D1DDC801B201D1DB3A
:100F90007B018C01C601B201CCDB9B01AC01C80115
:100FA000B701AFD620E030E044E353E40E946E1076
:100FB0002BED3FE049E450E4FBD60E94D1107B01C9
:100FC0008C0120E030E044E353E40E9463101816E3
:100FD0004CF4C801B70120E030E044EB53E41DD6E7
:100FE0007B018C01C801B70120E030E044E353EC01
:100FF000DBD688234CF4C801B70120E030E044EB95
:1010000053E40CD67B018C01B701C80168960FB67A
:10101000F894DEBF0FBECDBFCF91DF911F910F912E
:10102000FF90EF90DF90CF90BF90AF909F908F9008
:101030007F906F905F904F9008956F927F928F9204
:101040009F92AF92BF92CF92DF92EF92FF920F9357
:101050001F93DF93CF93CDB7DEB7A4970FB6F89465
:10106000DEBF0FBECDBF3C01DE015996EAE1F1E0E3
:101070008CE001900D928150E1F78E01035F1F4FCC
:101080007E010894E11CF11CC701B8017CD9C7019D
:10109000B801AE01475E5F4FBEDE4B015C01C70188
:1010A0008FDBC301C980DA80EB80FC800D811E815B
:1010B0002F81388549855A856B857C8573DDF301E1
:1010C00080869186A286B386C301A4960FB6F89453
:1010D000DEBF0FBECDBFCF91DF911F910F91FF906B
:1010E000EF90DF90CF90BF90AF909F908F907F90C8
:1010F0006F9008951F920F920FB60F9211240F93C5
:101100001F932F933F934F935F936F937F938F938F
:101110009F93AF93BF93EF93FF93DF93CF93CDB79D
:10112000DEB72C97DEBFCDBF2091700130917101E9
:101130002F5F3F4F30937101209370018091180110
:1011400090911901909385008093840078942A30BF
:1011500031059CF08E010F5F1F4FC8016EDFA4E6C2
:10116000B1E0F8018CE001900D928150E1F702DCD2
:1011700031D510927101109270012C96DEBFCDBF57
:10118000CF91DF91FF91EF91BF91AF919F918F919F
:101190007F916F915F914F913F912F911F910F918F
:1011A0000F900FBE0F901F901895DA019330B1F099
:1011B000943028F4913041F0923079F50AC09132A0
:1011C00011F1923251F524C0E1E2F1E022E130E088
:1011D00028C0E3E3F1E029E230E023C0813049F0A8
:1011E000813018F08230C9F40AC0ECE5F1E0849156
:1011F00003C0E0E6F1E08491282F30E012C0EAE776
:10120000F1E08491F9CFE5E4F1E029E030E009C0B4
:10121000E1E0F1E020E230E004C0E0E0F0E020E0D6
:1012200030E0ED93FC93C9010895382F282F2EC08C
:10123000822F8F708093E900231721F4942F762F4B
:1012400050E006C07091EC009091ED005091F000DC
:1012500091FF1BC08091EB008E7F8093EB0080910B
:10126000ED008D7F8093ED008091EB008160809395
:10127000EB007093EC009093ED005093F0008091A0
:10128000EE0087FD02C080E008952F5F273080F2D6
:101290003F703093E90081E00895809177018823C1
:1012A0009CF404C0809176018823B9F08091E80015
:1012B00082FFF8CF8091E8008B778093E800089553
:1012C00080917601882349F08091E80080FFF8CF73
:1012D0008091E8008E778093E80008954091E400C3
:1012E0005091E50024E68091EC0080FF24C08091BD
:1012F000E80080FD1EC080917601882311F482E011
:101300000895853011F483E008958091EB0085FF06
:1013100002C081E008958091E4009091E500841777
:10132000950709F3222311F484E008952150AC01BC
:10133000DACF80E008958091E80082FFDCCFF9CF1A
:10134000EF92FF920F931F934FD056D008ED10E00D
:10135000F80180818F77808380818068808380819D
:101360008F7D808319BC10927601109272011092C9
:1013700074011092730180EEE82EF12CF701808148
:101380008B7F8083F80180818160808380E060E0D2
:1013900042E04BDFE1EEF0E080818E7F8083E2EE81
:1013A000F0E0808181608083808188608083F701A4
:1013B00080818E7F8083F8018081806180831F918E
:1013C0000F91FF90EF900895E8EDF0E080818F7E1F
:1013D0008083E7EDF0E080818160808384E082BFDC
:1013E00081E080937501ACCFE8EDF0E080818E7FE5
:1013F00080831092E20008951092DA001092E100CA
:1014000008951F920F920FB60F9211242F933F93BE
:101410004F935F936F937F938F939F93AF93BF93FC
:10142000EF93FF938091E10082FF0AC08091E20078
:1014300082FF06C08091E1008B7F8093E100C9D3D9
:101440008091DA0080FF1DC08091D80080FF19C014
:101450008091DA008E7F8093DA008091D90080FF3E
:101460000CC080E189BD82E189BD09B400FEFDCFD9
:1014700081E080937601E4D904C019BC1092760112
:10148000E4D98091E10080FF18C08091E20080FFE4
:1014900014C08091E2008E7F8093E2008091E20090
:1014A00080618093E2008091D80080628093D800B0
:1014B00019BC85E0809376018CD38091E10084FF94
:1014C0002DC08091E20084FF29C080E189BD82E1C6
:1014D00089BD09B400FEFDCF8091D8008F7D809337
:1014E000D8008091E1008F7E8093E1008091E2003E
:1014F0008F7E8093E2008091E20081608093E20021
:1015000080917201882331F48091E30087FD02C04D
:1015100081E001C084E0809376015BD38091E1009B
:1015200083FF22C08091E20083FF1EC08091E10012
:10153000877F8093E10082E08093760110927201B0
:101540008091E1008E7F8093E1008091E2008E7FA8
:101550008093E2008091E20080618093E20080E06D
:1015600060E042E062DE35D3FF91EF91BF91AF9131
:101570009F918F917F916F915F914F913F912F91AB
:101580000F900FBE0F901F9018959C0140917D0108
:1015900050917E014617570718F4F90190E045C0B5
:1015A0006115710511F0AB01F8CF8091E8008E77DD
:1015B0008093E80040E050E0F0CF809176018823EE
:1015C00009F445C0853009F444C08091E80083FFE8
:1015D00002C081E008958091E80082FD32C08091D0
:1015E000E80080FF22C08091F3009091F200782FF4
:1015F00060E0292F30E0262B372B07C081918093A4
:10160000F100415050402F5F3F4F4115510519F0F7
:101610002830310598F390E02830310509F491E045
:101620008091E8008E778093E8004115510529F6F6
:10163000992319F606C080917601882341F0853000
:1016400041F08091E80082FFF6CF80E0089582E0CB
:10165000089583E008959C016115710529F4809136
:10166000E8008B778093E800F90127C0809176012C
:10167000882399F1853099F18091E80083FF02C0B9
:1016800081E008958091E80082FFF0CF06C080914C
:10169000F10081936150704059F02091F3008091E6
:1016A000F200322F20E090E0822B932B892B79F7E8
:1016B0008091E8008B778093E80061157105B1F6A1
:1016C00006C080917601882341F0853041F08091F9
:1016D000E80080FFF6CF80E0089582E0089583E07F
:1016E00008959C0140917D0150917E014617570756
:1016F00018F4F90190E046C06115710511F0AB01D5
:10170000F8CF8091E8008E778093E80040E050E0C9
:10171000F0CF80917601882309F447C0853009F421
:1017200046C08091E80083FF02C081E00895809167
:10173000E80082FD34C08091E80080FF23C08091E2
:10174000F3009091F200782F60E0292F30E0262BF3
:10175000372B08C084918093F1003196415050405E
:101760002F5F3F4F4115510519F02830310590F397
:1017700090E02830310509F491E08091E8008E77FF
:101780008093E8004115510521F6992309F0C1CF56
:1017900006C080917601882341F0853041F0809128
:1017A000E80082FFF6CF80E0089582E0089583E0AC
:1017B0000895BF92CF92DF92EF92FF920F931F9303
:1017C000CF93DF93182F092F7B016A0187DDB82E95
:1017D0008823B1F5812F902F9C01E901C114D10418
:1017E00039F0F60180819181E81AF90AC80FD91FF2
:1017F00000E010E022C08091E80085FD16C08091D5
:10180000E8008B778093E800E5D1C114D10449F05A
:10181000F60180819181800F911F9183808385E003
:1018200010C05CDD882349F00CC08091F1008993E1
:101830000894E108F1080F5F1F4FE114F104D9F695
:101840008B2DDF91CF911F910F91FF90EF90DF9043
:10185000CF90BF900895BF92CF92DF92EF92FF9208
:101860000F931F93CF93DF93182F092F7B016A01EA
:1018700035DDB82E8823B1F5812F902F9C01E90129
:10188000C114D10439F0F60180819181E81AF90A76
:10189000C80FD91F00E010E022C08091E80085FD4C
:1018A00016C08091E8008E778093E80093D1C11430
:1018B000D10449F0F60180819181800F911F9183BD
:1018C000808385E010C00ADD882349F00CC089912F
:1018D0008093F1000894E108F1080F5F1F4FE114B5
:1018E000F104D9F68B2DDF91CF911F910F91FF90CD
:1018F000EF90DF90CF90BF9008950F931F93DF93E9
:10190000CF93CDB7DEB7AC970FB6F894DEBF0FBE5E
:10191000CDBFE7E7F1E08091F100819321E0EF375F
:10192000F207C9F774D88091E80083FF39C180912C
:10193000770130917801353009F487C0363040F4B2
:101940003130C9F1313070F0333009F029C133C082
:10195000383009F4F6C0393009F405C1363009F0E1
:101960001FC197C0803821F0823809F019C108C022
:101970009091730180917401882399F0926011C055
:1019800080917B018F708093E9008091EB0090E063
:1019900025E0969587952A95E1F7982F91701092FA
:1019A000E9008091E800877F8093E8009093F10040
:1019B0001092F100D1C0882319F0823009F0F0C0F4
:1019C00090E08F719070009721F0029709F0E8C0C5
:1019D0000CC080917901813009F0E2C0109274014D
:1019E000333069F5809374012AC08091790188238E
:1019F00031F520917B012F7009F4D2C02093E900CA
:101A00008091EB0080FF1BC0333021F48091EB000C
:101A1000806213C08091EB0080618093EB0081E0D5
:101A200090E002C0880F991F2A95E2F78093EA00A0
:101A30001092EA008091EB0088608093EB00109296
:101A4000E9008091E800877F8AC0882309F0A8C058
:101A5000109179011F770FB7F8948091E800877F84
:101A60008093E8001ADC8091E80080FFFCCF809131
:101A7000E3008078812B8093E30080688093E3000B
:101A8000112311F482E001C083E0809376010FBF3F
:101A900087C08058823008F083C08091790190918E
:101AA0007A0123E08C3D920709F033C083E08C83F8
:101AB0008AE28B837FB7F894DE0115966EE040E0F2
:101AC00050E011E2E62FF0E010935700849140FFC0
:101AD00003C082958F706F5F8F70282F30E08A303F
:101AE00018F0C901C79602C0C901C0968D939D9395
:101AF0004F5F5F4F4431510529F77FBF8091E80068
:101B0000877F8093E800CE0103966AE270E03DDDB6
:101B100012C060917B01AE014F5F5F4F46DBBC019D
:101B2000009709F43DC08091E800877F8093E8002A
:101B300089819A81D6DD8091E8008B778093E800D7
:101B40002FC0803869F58091E800877F8093E80096
:101B5000809172018093F1008091E8008E778093EC
:101B6000E8009BDB1DC08823D9F490917901923065
:101B7000B8F48091E800877F8093E8009093720129
:101B80008CDB80917201882331F48091E30087FD22
:101B900002C081E001C084E0809376010E94540578
:101BA0008091E80083FF0AC08091EB0080628093FF
:101BB000EB008091E800877F8093E800AC960FB639
:101BC000F894DEBF0FBECDBFCF91DF911F910F9173
:101BD000089508951F9380917601882371F01091E4
:101BE000E9008091EC001092E9008091E80083FF09
:101BF00001C083DE1F701093E9001F9108959F9329
:101C00009F77ACD10F9000203AF49058A2EA2AEDC9
:101C10003FE049E450E413D01CC25058BB27AA2728
:101C20000ED017C208D230F00DD220F031F49F3F11
:101C300011F41EF4D8C10EF4E095E7FBCEC1E92FF4
:101C400019D280F3BA17620773078407950718F053
:101C500071F49EF531C20EF4E0950B2EBA2FA02D33
:101C60000B01B90190010C01CA01A0011124FF2749
:101C7000591B99F0593F50F4503E68F11A16F04044
:101C8000A22F232F342F4427585FF3CF4695379543
:101C90002795A795F0405395C9F77EF41F16BA0B08
:101CA000620B730B840BBAF09150A1F0FF0FBB1FB6
:101CB000661F771F881FC2F70EC0BA0F621F731FFF
:101CC000841F48F4879577956795B795F7959E3F5C
:101CD00008F0B3CF9395880F08F09927EE0F9795EA
:101CE00087950895A8D158F080E891E009F49EEF17
:101CF000A9D128F040E851E059F45EEF09C073C162
:101D0000DBC1E92FE078B6D168F3092E052AC1F3CB
:101D1000261737074807590738F00E2E07F8E02531
:101D200069F0E025E0640AC0EF6307F8009407FA61
:101D3000DB01B9019D01DC01CA01AD01EF9347D080
:101D400088D10AD05F91552331F02BED3FE049E473
:101D500050FD49EC63CF0895DF93DD27B92FBF779E
:101D600040E85FE31616170648075B0710F4D92F03
:101D7000AED19F938F937F936F9375D2ECEAF0E08F
:101D800035D167D12F913F914F915F91B3D1DD2331
:101D900049F09058A2EA2AED3FE049EC5FE3D078A1
:101DA0005D274DDFDF9155C1F4D008F481E008953F
:101DB0000CD04FC147D140F03ED130F021F45F3F0D
:101DC00019F00BC1511179C10EC154D198F3992367
:101DD000C9F35523B1F3951B550BBB27AA276217EF
:101DE0007307840738F09F5F5F4F220F331F441F34
:101DF000AA1FA9F333D00E2E3AF0E0E830D091506C
:101E00005040E695001CCAF729D0FE2F27D0660F58
:101E1000771F881FBB1F261737074807AB07B0E897
:101E200009F0BB0B802DBF01FF2793585F4F2AF0AD
:101E30009E3F510568F0D1C040C15F3FECF3983E32
:101E4000DCF3869577956795B795F7959F5FC9F70A
:101E5000880F911D9695879597F90895E1E0660F93
:101E6000771F881FBB1F621773078407BA0720F00C
:101E7000621B730B840BBA0BEE1F88F7E095089575
:101E800004D06894B11119C10895FCD088F09F570F
:101E900090F0B92F9927B751A0F0D1F0660F771FB6
:101EA000881F991F1AF0BA95C9F712C0B13081F096
:101EB00003D1B1E0089500C1672F782F8827B85F5C
:101EC00039F0B93FCCF3869577956795B395D9F7F7
:101ED0003EF490958095709561957F4F8F4F9F4F01
:101EE0000895E89409C097FB3EF49095809570950D
:101EF00061957F4F8F4F9F4F9923A9F0F92F96E956
:101F0000BB279395F695879577956795B795F111CA
:101F1000F8CFFAF4BB0F11F460FF1BC06F5F7F4F67
:101F20008F4F9F4F16C0882311F096E911C0772379
:101F300021F09EE8872F762F05C0662371F096E882
:101F4000862F70E060E02AF09A95660F771F881F51
:101F5000DAF7880F9695879597F90895DF93CF93D1
:101F60001F930F938B01EC01E9EDF0E03FD071D0AE
:101F70009801AE018B01EC0160E070E080E89FE326
:101F80004CDE33D19801AE010F911F91CF91DF91BB
:101F9000B1C0990F0008550FAA0BE0E8FEEF161626
:101FA0001706E807F907C0F012161306E407F5074D
:101FB00098F0621B730B840B950B39F40A2661F0C1
:101FC000232B242B252B21F408950A2609F4A14064
:101FD000A6958FEF811D811D089597F99F6780E871
:101FE00070E060E008959FEF80EC0895DF93CF9359
:101FF0001F930F93FF92EF92DF927B018C01689405
:1020000005C0DA2EEF0176D0FE01E894A591259166
:10201000359145915591AEF3EF0111DEFE01970127
:10202000A801DA9479F7DF90EF90FF900F911F915C
:10203000CF91DF91089500240A941616170618060A
:102040000906089500240A941216130614060506BC
:102050000895092E0394000C11F4882352F0BB0F4D
:1020600040F4BF2B11F460FF04C06F5F7F4F8F4FB0
:102070009F4F089557FD9058440F551F59F05F3FEB
:1020800071F04795880F97FB991F61F09F3F79F09A
:1020900087950895121613061406551FF2CF46951C
:1020A000F1DF08C0161617061806991FF1CF86959E
:1020B0007105610508940895E894BB276627772782
:1020C000CB0197F9089565DF08F48FEF08959B0120
:1020D000AC0160E070E080E89FE36ACE0BD0B9CF3E
:1020E000AADF28F0AFDF18F0952309F076CF7BCF79
:1020F0001124E3CFBFDFA0F3959FD1F3950F50E0FC
:10210000551F629FF001729FBB27F00DB11D639FA9
:10211000AA27F00DB11DAA1F649F6627B00DA11D4F
:10212000661F829F2227B00DA11D621F739FB00DF5
:10213000A11D621F839FA00D611D221F749F332765
:10214000A00D611D231F849F600D211D822F762FFE
:102150006A2F11249F5750408AF0E1F088234AF0FB
:10216000EE0FFF1FBB1F661F771F881F9150504047
:10217000A9F79E3F510570F030CF9FCF5F3FECF342
:10218000983EDCF3869577956795B795F795E79533
:102190009F5FC1F7FE2B880F911D9695879597F944
:1021A000089570DFE0F09E37D8F09639B8F49E3885
:1021B00048F4672F782F8827985FF9CF8695779511
:1021C000679593959539D0F3B62FB1706B0F711D4C
:1021D000811D20F4879577956795939547C061C0D9
:1021E0006CCF11F40EF4FFCE5CC04CDFD0F399231A
:1021F000D9F3CEF39F57550B87FF61D00024A0E69B
:1022000040EA900180585695979528F4805C660FB7
:10221000771F881F20F026173707480730F4621B06
:10222000730B840B202931294A2BA6951794079408
:10223000202531254A2758F7660F771F881F20F081
:1022400026173707480730F4620B730B840B200DF9
:10225000311D411DA09581F7B901842F9158880F38
:102260009695879508959B01AC0138CF882371F42A
:10227000772321F09850872B762F07C0662311F41F
:1022800099270DC09051862B70E060E02AF09A9556
:10229000660F771F881FDAF7880F9695879597F94D
:1022A00008959F3F31F0915020F487957795679579
:1022B000B795880F911D9695879597F90895915038
:1022C0005040660F771F881FD2F70895A1E21A2E9B
:1022D000AA1BBB1BFD010DC0AA1FBB1FEE1FFF1FCA
:1022E000A217B307E407F50720F0A21BB30BE40B1A
:1022F000F50B661F771F881F991F1A9469F7609561
:102300007095809590959B01AC01BD01CF0108951A
:04231000F894FFCF6F
:102314000000F6C30080FBC3004009C400C01044A1
:102324000000F7430000A143B8880000000000004B
:1023340080BF00000000000000000000000000005A
:102344000000000000000000000000000000000089
:0A235400000000000000000000007F
:00000001FF
